{"abi":[{"type":"constructor","inputs":[{"name":"_stakingToken","type":"address","internalType":"address"},{"name":"_minimumStakeAmount","type":"uint256","internalType":"uint256"}],"stateMutability":"nonpayable"},{"type":"function","name":"LOCK_180_DAYS","inputs":[],"outputs":[{"name":"","type":"uint256","internalType":"uint256"}],"stateMutability":"view"},{"type":"function","name":"LOCK_30_DAYS","inputs":[],"outputs":[{"name":"","type":"uint256","internalType":"uint256"}],"stateMutability":"view"},{"type":"function","name":"LOCK_365_DAYS","inputs":[],"outputs":[{"name":"","type":"uint256","internalType":"uint256"}],"stateMutability":"view"},{"type":"function","name":"LOCK_7_DAYS","inputs":[],"outputs":[{"name":"","type":"uint256","internalType":"uint256"}],"stateMutability":"view"},{"type":"function","name":"LOCK_90_DAYS","inputs":[],"outputs":[{"name":"","type":"uint256","internalType":"uint256"}],"stateMutability":"view"},{"type":"function","name":"PERMIT2_ADDRESS","inputs":[],"outputs":[{"name":"","type":"address","internalType":"address"}],"stateMutability":"view"},{"type":"function","name":"emergencyRecoverTokens","inputs":[{"name":"_token","type":"address","internalType":"address"},{"name":"_amount","type":"uint256","internalType":"uint256"}],"outputs":[],"stateMutability":"nonpayable"},{"type":"function","name":"emergencyWithdraw","inputs":[{"name":"_stakeId","type":"uint256","internalType":"uint256"}],"outputs":[],"stateMutability":"nonpayable"},{"type":"function","name":"getContractTokenBalance","inputs":[],"outputs":[{"name":"","type":"uint256","internalType":"uint256"}],"stateMutability":"view"},{"type":"function","name":"getStakeDetails","inputs":[{"name":"_user","type":"address","internalType":"address"},{"name":"_stakeId","type":"uint256","internalType":"uint256"}],"outputs":[{"name":"amount","type":"uint256","internalType":"uint256"},{"name":"timestamp","type":"uint256","internalType":"uint256"},{"name":"lockPeriod","type":"uint256","internalType":"uint256"},{"name":"unlockTime","type":"uint256","internalType":"uint256"},{"name":"withdrawn","type":"bool","internalType":"bool"},{"name":"canWithdraw","type":"bool","internalType":"bool"}],"stateMutability":"view"},{"type":"function","name":"getUserStakes","inputs":[{"name":"_user","type":"address","internalType":"address"}],"outputs":[{"name":"amounts","type":"uint256[]","internalType":"uint256[]"},{"name":"timestamps","type":"uint256[]","internalType":"uint256[]"},{"name":"lockPeriods","type":"uint256[]","internalType":"uint256[]"},{"name":"unlockTimes","type":"uint256[]","internalType":"uint256[]"},{"name":"withdrawn","type":"bool[]","internalType":"bool[]"},{"name":"canWithdraw","type":"bool[]","internalType":"bool[]"}],"stateMutability":"view"},{"type":"function","name":"getValidLockPeriods","inputs":[],"outputs":[{"name":"periods","type":"uint256[]","internalType":"uint256[]"},{"name":"labels","type":"string[]","internalType":"string[]"}],"stateMutability":"pure"},{"type":"function","name":"minimumStakeAmount","inputs":[],"outputs":[{"name":"","type":"uint256","internalType":"uint256"}],"stateMutability":"view"},{"type":"function","name":"owner","inputs":[],"outputs":[{"name":"","type":"address","internalType":"address"}],"stateMutability":"view"},{"type":"function","name":"pause","inputs":[],"outputs":[],"stateMutability":"nonpayable"},{"type":"function","name":"paused","inputs":[],"outputs":[{"name":"","type":"bool","internalType":"bool"}],"stateMutability":"view"},{"type":"function","name":"renounceOwnership","inputs":[],"outputs":[],"stateMutability":"nonpayable"},{"type":"function","name":"setMinimumStakeAmount","inputs":[{"name":"_newAmount","type":"uint256","internalType":"uint256"}],"outputs":[],"stateMutability":"nonpayable"},{"type":"function","name":"stake","inputs":[{"name":"_amount","type":"uint256","internalType":"uint256"},{"name":"_lockPeriod","type":"uint256","internalType":"uint256"}],"outputs":[],"stateMutability":"nonpayable"},{"type":"function","name":"stakeWithTransfer","inputs":[{"name":"_amount","type":"uint256","internalType":"uint256"},{"name":"_lockPeriod","type":"uint256","internalType":"uint256"}],"outputs":[],"stateMutability":"nonpayable"},{"type":"function","name":"stakes","inputs":[{"name":"","type":"address","internalType":"address"},{"name":"","type":"uint256","internalType":"uint256"}],"outputs":[{"name":"amount","type":"uint256","internalType":"uint256"},{"name":"timestamp","type":"uint256","internalType":"uint256"},{"name":"lockPeriod","type":"uint256","internalType":"uint256"},{"name":"withdrawn","type":"bool","internalType":"bool"}],"stateMutability":"view"},{"type":"function","name":"stakingToken","inputs":[],"outputs":[{"name":"","type":"address","internalType":"contract IERC20"}],"stateMutability":"view"},{"type":"function","name":"totalStakedGlobal","inputs":[],"outputs":[{"name":"","type":"uint256","internalType":"uint256"}],"stateMutability":"view"},{"type":"function","name":"totalStakersCount","inputs":[],"outputs":[{"name":"","type":"uint256","internalType":"uint256"}],"stateMutability":"view"},{"type":"function","name":"totalWithdrawnGlobal","inputs":[],"outputs":[{"name":"","type":"uint256","internalType":"uint256"}],"stateMutability":"view"},{"type":"function","name":"transferOwnership","inputs":[{"name":"newOwner","type":"address","internalType":"address"}],"outputs":[],"stateMutability":"nonpayable"},{"type":"function","name":"unpause","inputs":[],"outputs":[],"stateMutability":"nonpayable"},{"type":"function","name":"userStakeCount","inputs":[{"name":"","type":"address","internalType":"address"}],"outputs":[{"name":"","type":"uint256","internalType":"uint256"}],"stateMutability":"view"},{"type":"function","name":"userStats","inputs":[{"name":"","type":"address","internalType":"address"}],"outputs":[{"name":"totalStaked","type":"uint256","internalType":"uint256"},{"name":"totalWithdrawn","type":"uint256","internalType":"uint256"},{"name":"stakeCount","type":"uint256","internalType":"uint256"}],"stateMutability":"view"},{"type":"function","name":"withdraw","inputs":[{"name":"_stakeId","type":"uint256","internalType":"uint256"}],"outputs":[],"stateMutability":"nonpayable"},{"type":"event","name":"EmergencyWithdraw","inputs":[{"name":"user","type":"address","indexed":true,"internalType":"address"},{"name":"stakeId","type":"uint256","indexed":true,"internalType":"uint256"},{"name":"amount","type":"uint256","indexed":false,"internalType":"uint256"},{"name":"penalty","type":"uint256","indexed":false,"internalType":"uint256"}],"anonymous":false},{"type":"event","name":"MinimumStakeAmountUpdated","inputs":[{"name":"oldAmount","type":"uint256","indexed":false,"internalType":"uint256"},{"name":"newAmount","type":"uint256","indexed":false,"internalType":"uint256"}],"anonymous":false},{"type":"event","name":"OwnershipTransferred","inputs":[{"name":"previousOwner","type":"address","indexed":true,"internalType":"address"},{"name":"newOwner","type":"address","indexed":true,"internalType":"address"}],"anonymous":false},{"type":"event","name":"Paused","inputs":[{"name":"account","type":"address","indexed":false,"internalType":"address"}],"anonymous":false},{"type":"event","name":"Staked","inputs":[{"name":"user","type":"address","indexed":true,"internalType":"address"},{"name":"stakeId","type":"uint256","indexed":true,"internalType":"uint256"},{"name":"amount","type":"uint256","indexed":false,"internalType":"uint256"},{"name":"lockPeriod","type":"uint256","indexed":false,"internalType":"uint256"},{"name":"unlockTime","type":"uint256","indexed":false,"internalType":"uint256"}],"anonymous":false},{"type":"event","name":"Unpaused","inputs":[{"name":"account","type":"address","indexed":false,"internalType":"address"}],"anonymous":false},{"type":"event","name":"Withdrawn","inputs":[{"name":"user","type":"address","indexed":true,"internalType":"address"},{"name":"stakeId","type":"uint256","indexed":true,"internalType":"uint256"},{"name":"amount","type":"uint256","indexed":false,"internalType":"uint256"}],"anonymous":false},{"type":"error","name":"EnforcedPause","inputs":[]},{"type":"error","name":"ExpectedPause","inputs":[]},{"type":"error","name":"OwnableInvalidOwner","inputs":[{"name":"owner","type":"address","internalType":"address"}]},{"type":"error","name":"OwnableUnauthorizedAccount","inputs":[{"name":"account","type":"address","internalType":"address"}]},{"type":"error","name":"ReentrancyGuardReentrantCall","inputs":[]}],"bytecode":{"object":"0x60a060405234801561000f575f5ffd5b50604051613892380380613892833981810160405281019061003191906102ff565b3360015f819055505f73ffffffffffffffffffffffffffffffffffffffff168173ffffffffffffffffffffffffffffffffffffffff16036100a9575f6040517f1e4fbdf70000000000000000000000000000000000000000000000000000000081526004016100a0919061034c565b60405180910390fd5b6100b8816101ab60201b60201c565b505f73ffffffffffffffffffffffffffffffffffffffff168273ffffffffffffffffffffffffffffffffffffffff1603610127576040517f08c379a000000000000000000000000000000000000000000000000000000000815260040161011e906103bf565b60405180910390fd5b5f8111610169576040517f08c379a000000000000000000000000000000000000000000000000000000000815260040161016090610427565b60405180910390fd5b8173ffffffffffffffffffffffffffffffffffffffff1660808173ffffffffffffffffffffffffffffffffffffffff1681525050806008819055505050610445565b5f60015f9054906101000a900473ffffffffffffffffffffffffffffffffffffffff1690508160015f6101000a81548173ffffffffffffffffffffffffffffffffffffffff021916908373ffffffffffffffffffffffffffffffffffffffff1602179055508173ffffffffffffffffffffffffffffffffffffffff168173ffffffffffffffffffffffffffffffffffffffff167f8be0079c531659141344cd1fd0a4f28419497f9722a3daafe3b4186f6b6457e060405160405180910390a35050565b5f5ffd5b5f73ffffffffffffffffffffffffffffffffffffffff82169050919050565b5f61029b82610272565b9050919050565b6102ab81610291565b81146102b5575f5ffd5b50565b5f815190506102c6816102a2565b92915050565b5f819050919050565b6102de816102cc565b81146102e8575f5ffd5b50565b5f815190506102f9816102d5565b92915050565b5f5f604083850312156103155761031461026e565b5b5f610322858286016102b8565b9250506020610333858286016102eb565b9150509250929050565b61034681610291565b82525050565b5f60208201905061035f5f83018461033d565b92915050565b5f82825260208201905092915050565b7f496e76616c696420746f6b656e206164647265737300000000000000000000005f82015250565b5f6103a9601583610365565b91506103b482610375565b602082019050919050565b5f6020820190508181035f8301526103d68161039d565b9050919050565b7f4d696e696d756d207374616b65206d757374206265203e2030000000000000005f82015250565b5f610411601983610365565b915061041c826103dd565b602082019050919050565b5f6020820190508181035f83015261043e81610405565b9050919050565b60805161340461048e5f395f8181610d0101528181610e3801528181610edd015281816112ad0152818161145a0152818161151c01528181611de80152611ec101526134045ff3fe608060405234801561000f575f5ffd5b50600436106101d8575f3560e01c80637b0472f011610102578063966eab11116100a0578063e5777b771161006f578063e5777b771461050c578063e9cac4181461052a578063ed21d26914610546578063f2fde38b14610564576101d8565b8063966eab1114610482578063a8513ffa146104a0578063b02e64a9146104be578063e37c3a55146104ee576101d8565b8063842e2981116100dc578063842e2981146103f35780638456cb59146104285780638a65d874146104325780638da5cb5b14610464576101d8565b80637b0472f01461039b5780637c6e5db7146103b757806382865218146103d5576101d8565b80633f4ba83a1161017a5780635c975abb116101495780635c975abb146103375780636b036f4514610355578063715018a61461037357806372f702f31461037d576101d8565b80633f4ba83a146102c057806351383f98146102ca5780635312ea8e146102e8578063584b62a114610304576101d8565b806325133527116101b6578063251335271461024c5780632e1a7d4d1461026a578063317d9453146102865780633dcd2c1d146102a4576101d8565b80630d29fcd4146101dc5780630f0a4fef146101f857806313e00b3c1461022d575b5f5ffd5b6101f660048036038101906101f1919061264d565b610580565b005b610212600480360381019061020d91906126d2565b610614565b60405161022496959493929190612739565b60405180910390f35b61023561077d565b60405161024392919061297a565b60405180910390f35b610254610a7d565b60405161026191906129af565b60405180910390f35b610284600480360381019061027f919061264d565b610a84565b005b61028e610e35565b60405161029b91906129af565b60405180910390f35b6102be60048036038101906102b991906126d2565b610ed3565b005b6102c8610ff0565b005b6102d2611002565b6040516102df91906129af565b60405180910390f35b61030260048036038101906102fd919061264d565b61100a565b005b61031e600480360381019061031991906126d2565b6113e6565b60405161032e94939291906129c8565b60405180910390f35b61033f611429565b60405161034c9190612a0b565b60405180910390f35b61035d61143f565b60405161036a91906129af565b60405180910390f35b61037b611445565b005b610385611458565b6040516103929190612a7f565b60405180910390f35b6103b560048036038101906103b09190612a98565b61147c565b005b6103bf6118c3565b6040516103cc91906129af565b60405180910390f35b6103dd6118ca565b6040516103ea91906129af565b60405180910390f35b61040d60048036038101906104089190612ad6565b6118d1565b60405161041f96959493929190612bb8565b60405180910390f35b610430611cad565b005b61044c60048036038101906104479190612ad6565b611cbf565b60405161045b93929190612c41565b60405180910390f35b61046c611ce5565b6040516104799190612c85565b60405180910390f35b61048a611d0d565b60405161049791906129af565b60405180910390f35b6104a8611d13565b6040516104b591906129af565b60405180910390f35b6104d860048036038101906104d39190612ad6565b611d19565b6040516104e591906129af565b60405180910390f35b6104f6611d2e565b60405161050391906129af565b60405180910390f35b610514611d35565b6040516105219190612c85565b60405180910390f35b610544600480360381019061053f9190612a98565b611d48565b005b61054e612266565b60405161055b91906129af565b60405180910390f35b61057e60048036038101906105799190612ad6565b61226c565b005b6105886122f0565b5f81116105ca576040517f08c379a00000000000000000000000000000000000000000000000000000000081526004016105c190612cf8565b60405180910390fd5b5f6008549050816008819055507fe3117c3cc31e2d5d67afc8b5c366cd87a436cd3aaf93a169500733f4ebfb96ad8183604051610608929190612d16565b60405180910390a15050565b5f5f5f5f5f5f60035f8973ffffffffffffffffffffffffffffffffffffffff1673ffffffffffffffffffffffffffffffffffffffff1681526020019081526020015f20548710610699576040517f08c379a000000000000000000000000000000000000000000000000000000000815260040161069090612d87565b60405180910390fd5b5f60025f8a73ffffffffffffffffffffffffffffffffffffffff1673ffffffffffffffffffffffffffffffffffffffff1681526020019081526020015f205f8981526020019081526020015f206040518060800160405290815f82015481526020016001820154815260200160028201548152602001600382015f9054906101000a900460ff16151515158152505090508060400151816020015161073e9190612dd2565b935080606001511580156107525750834210155b9150805f01518160200151826040015186846060015196509650965096509650509295509295509295565b606080600567ffffffffffffffff81111561079b5761079a612e05565b5b6040519080825280602002602001820160405280156107c95781602001602082028036833780820191505090505b509150600567ffffffffffffffff8111156107e7576107e6612e05565b5b60405190808252806020026020018201604052801561081a57816020015b60608152602001906001900390816108055790505b50905062093a80825f8151811061083457610833612e32565b5b6020026020010181815250506040518060400160405280600681526020017f3720646179730000000000000000000000000000000000000000000000000000815250815f8151811061088957610888612e32565b5b602002602001018190525062278d00826001815181106108ac576108ab612e32565b5b6020026020010181815250506040518060400160405280600781526020017f33302064617973000000000000000000000000000000000000000000000000008152508160018151811061090257610901612e32565b5b60200260200101819052506276a7008260028151811061092557610924612e32565b5b6020026020010181815250506040518060400160405280600781526020017f39302064617973000000000000000000000000000000000000000000000000008152508160028151811061097b5761097a612e32565b5b602002602001018190525062ed4e008260038151811061099e5761099d612e32565b5b6020026020010181815250506040518060400160405280600881526020017f3138302064617973000000000000000000000000000000000000000000000000815250816003815181106109f4576109f3612e32565b5b60200260200101819052506301e1338082600481518110610a1857610a17612e32565b5b6020026020010181815250506040518060400160405280600881526020017f333635206461797300000000000000000000000000000000000000000000000081525081600481518110610a6e57610a6d612e32565b5b60200260200101819052509091565b62093a8081565b610a8c612377565b60035f3373ffffffffffffffffffffffffffffffffffffffff1673ffffffffffffffffffffffffffffffffffffffff1681526020019081526020015f20548110610b0b576040517f08c379a0000000000000000000000000000000000000000000000000000000008152600401610b0290612d87565b60405180910390fd5b5f60025f3373ffffffffffffffffffffffffffffffffffffffff1673ffffffffffffffffffffffffffffffffffffffff1681526020019081526020015f205f8381526020019081526020015f209050806003015f9054906101000a900460ff1615610bab576040517f08c379a0000000000000000000000000000000000000000000000000000000008152600401610ba290612ea9565b60405180910390fd5b80600201548160010154610bbf9190612dd2565b421015610c01576040517f08c379a0000000000000000000000000000000000000000000000000000000008152600401610bf890612f11565b60405180910390fd5b5f815f015490506001826003015f6101000a81548160ff0219169083151502179055508060045f3373ffffffffffffffffffffffffffffffffffffffff1673ffffffffffffffffffffffffffffffffffffffff1681526020019081526020015f205f015f828254610c729190612f2f565b925050819055508060045f3373ffffffffffffffffffffffffffffffffffffffff1673ffffffffffffffffffffffffffffffffffffffff1681526020019081526020015f206001015f828254610cc89190612dd2565b925050819055508060055f828254610ce09190612f2f565b925050819055508060065f828254610cf89190612dd2565b925050819055507f000000000000000000000000000000000000000000000000000000000000000073ffffffffffffffffffffffffffffffffffffffff1663a9059cbb33836040518363ffffffff1660e01b8152600401610d5a929190612f62565b6020604051808303815f875af1158015610d76573d5f5f3e3d5ffd5b505050506040513d601f19601f82011682018060405250810190610d9a9190612fb3565b610dd9576040517f08c379a0000000000000000000000000000000000000000000000000000000008152600401610dd090613028565b60405180910390fd5b823373ffffffffffffffffffffffffffffffffffffffff167f92ccf450a286a957af52509bc1c9939d1a6a481783e142e41e2499f0bb66ebc683604051610e2091906129af565b60405180910390a35050610e326123bb565b50565b5f7f000000000000000000000000000000000000000000000000000000000000000073ffffffffffffffffffffffffffffffffffffffff166370a08231306040518263ffffffff1660e01b8152600401610e8f9190612c85565b602060405180830381865afa158015610eaa573d5f5f3e3d5ffd5b505050506040513d601f19601f82011682018060405250810190610ece919061305a565b905090565b610edb6122f0565b7f000000000000000000000000000000000000000000000000000000000000000073ffffffffffffffffffffffffffffffffffffffff168273ffffffffffffffffffffffffffffffffffffffff1603610f69576040517f08c379a0000000000000000000000000000000000000000000000000000000008152600401610f60906130cf565b60405180910390fd5b8173ffffffffffffffffffffffffffffffffffffffff1663a9059cbb610f8d611ce5565b836040518363ffffffff1660e01b8152600401610fab929190612f62565b6020604051808303815f875af1158015610fc7573d5f5f3e3d5ffd5b505050506040513d601f19601f82011682018060405250810190610feb9190612fb3565b505050565b610ff86122f0565b6110006123c4565b565b6301e1338081565b611012612377565b60035f3373ffffffffffffffffffffffffffffffffffffffff1673ffffffffffffffffffffffffffffffffffffffff1681526020019081526020015f20548110611091576040517f08c379a000000000000000000000000000000000000000000000000000000000815260040161108890612d87565b60405180910390fd5b5f60025f3373ffffffffffffffffffffffffffffffffffffffff1673ffffffffffffffffffffffffffffffffffffffff1681526020019081526020015f205f8381526020019081526020015f209050806003015f9054906101000a900460ff1615611131576040517f08c379a000000000000000000000000000000000000000000000000000000000815260040161112890612ea9565b60405180910390fd5b806002015481600101546111459190612dd2565b4210611186576040517f08c379a000000000000000000000000000000000000000000000000000000000815260040161117d90613137565b60405180910390fd5b5f815f015490505f60028261119b9190613182565b90505f81836111aa9190612f2f565b90506001846003015f6101000a81548160ff0219169083151502179055508260045f3373ffffffffffffffffffffffffffffffffffffffff1673ffffffffffffffffffffffffffffffffffffffff1681526020019081526020015f205f015f8282546112169190612f2f565b925050819055508060045f3373ffffffffffffffffffffffffffffffffffffffff1673ffffffffffffffffffffffffffffffffffffffff1681526020019081526020015f206001015f82825461126c9190612dd2565b925050819055508260055f8282546112849190612f2f565b925050819055508060065f82825461129c9190612dd2565b925050819055505f811115611386577f000000000000000000000000000000000000000000000000000000000000000073ffffffffffffffffffffffffffffffffffffffff1663a9059cbb33836040518363ffffffff1660e01b8152600401611306929190612f62565b6020604051808303815f875af1158015611322573d5f5f3e3d5ffd5b505050506040513d601f19601f820116820180604052508101906113469190612fb3565b611385576040517f08c379a000000000000000000000000000000000000000000000000000000000815260040161137c90613028565b60405180910390fd5b5b843373ffffffffffffffffffffffffffffffffffffffff167f2369db1bafee945aee5630782f4a170682e3f8188d8dc247a4c73eb8c9e692d283856040516113cf929190612d16565b60405180910390a3505050506113e36123bb565b50565b6002602052815f5260405f20602052805f5260405f205f9150915050805f015490806001015490806002015490806003015f9054906101000a900460ff16905084565b5f600160149054906101000a900460ff16905090565b60085481565b61144d6122f0565b6114565f612426565b565b7f000000000000000000000000000000000000000000000000000000000000000081565b611484612377565b61148c6124e9565b6008548210156114d1576040517f08c379a00000000000000000000000000000000000000000000000000000000081526004016114c8906131fc565b60405180910390fd5b6114da8161252a565b611519576040517f08c379a000000000000000000000000000000000000000000000000000000000815260040161151090613264565b60405180910390fd5b5f7f000000000000000000000000000000000000000000000000000000000000000073ffffffffffffffffffffffffffffffffffffffff166370a08231306040518263ffffffff1660e01b81526004016115739190612c85565b602060405180830381865afa15801561158e573d5f5f3e3d5ffd5b505050506040513d601f19601f820116820180604052508101906115b2919061305a565b9050828110156115f7576040517f08c379a00000000000000000000000000000000000000000000000000000000081526004016115ee906132cc565b60405180910390fd5b5f60035f3373ffffffffffffffffffffffffffffffffffffffff1673ffffffffffffffffffffffffffffffffffffffff1681526020019081526020015f2054905060405180608001604052808581526020014281526020018481526020015f151581525060025f3373ffffffffffffffffffffffffffffffffffffffff1673ffffffffffffffffffffffffffffffffffffffff1681526020019081526020015f205f8381526020019081526020015f205f820151815f015560208201518160010155604082015181600201556060820151816003015f6101000a81548160ff02191690831515021790555090505060035f3373ffffffffffffffffffffffffffffffffffffffff1673ffffffffffffffffffffffffffffffffffffffff1681526020019081526020015f205f815480929190611732906132ea565b919050555060045f3373ffffffffffffffffffffffffffffffffffffffff1673ffffffffffffffffffffffffffffffffffffffff1681526020019081526020015f206002015f815480929190611787906132ea565b91905055505f60045f3373ffffffffffffffffffffffffffffffffffffffff1673ffffffffffffffffffffffffffffffffffffffff1681526020019081526020015f205f0154036117ea5760075f8154809291906117e4906132ea565b91905055505b8360045f3373ffffffffffffffffffffffffffffffffffffffff1673ffffffffffffffffffffffffffffffffffffffff1681526020019081526020015f205f015f8282546118389190612dd2565b925050819055508360055f8282546118509190612dd2565b92505081905550803373ffffffffffffffffffffffffffffffffffffffff167f9cfd25589d1eb8ad71e342a86a8524e83522e3936c0803048c08f6d9ad974f408686874261189e9190612dd2565b6040516118ad93929190612c41565b60405180910390a350506118bf6123bb565b5050565b62278d0081565b62ed4e0081565b6060806060806060805f60035f8973ffffffffffffffffffffffffffffffffffffffff1673ffffffffffffffffffffffffffffffffffffffff1681526020019081526020015f205490508067ffffffffffffffff81111561193557611934612e05565b5b6040519080825280602002602001820160405280156119635781602001602082028036833780820191505090505b5096508067ffffffffffffffff8111156119805761197f612e05565b5b6040519080825280602002602001820160405280156119ae5781602001602082028036833780820191505090505b5095508067ffffffffffffffff8111156119cb576119ca612e05565b5b6040519080825280602002602001820160405280156119f95781602001602082028036833780820191505090505b5094508067ffffffffffffffff811115611a1657611a15612e05565b5b604051908082528060200260200182016040528015611a445781602001602082028036833780820191505090505b5093508067ffffffffffffffff811115611a6157611a60612e05565b5b604051908082528060200260200182016040528015611a8f5781602001602082028036833780820191505090505b5092508067ffffffffffffffff811115611aac57611aab612e05565b5b604051908082528060200260200182016040528015611ada5781602001602082028036833780820191505090505b5091505f5f90505b81811015611ca2575f60025f8b73ffffffffffffffffffffffffffffffffffffffff1673ffffffffffffffffffffffffffffffffffffffff1681526020019081526020015f205f8381526020019081526020015f206040518060800160405290815f82015481526020016001820154815260200160028201548152602001600382015f9054906101000a900460ff1615151515815250509050805f0151898381518110611b9257611b91612e32565b5b6020026020010181815250508060200151888381518110611bb657611bb5612e32565b5b6020026020010181815250508060400151878381518110611bda57611bd9612e32565b5b60200260200101818152505080604001518160200151611bfa9190612dd2565b868381518110611c0d57611c0c612e32565b5b6020026020010181815250508060600151858381518110611c3157611c30612e32565b5b6020026020010190151590811515815250508060600151158015611c6f5750858281518110611c6357611c62612e32565b5b60200260200101514210155b848381518110611c8257611c81612e32565b5b602002602001019015159081151581525050508080600101915050611ae2565b505091939550919395565b611cb56122f0565b611cbd61256d565b565b6004602052805f5260405f205f91509050805f0154908060010154908060020154905083565b5f60015f9054906101000a900473ffffffffffffffffffffffffffffffffffffffff16905090565b60065481565b60055481565b6003602052805f5260405f205f915090505481565b6276a70081565b6e22d473030f116ddee9f6b43ac78ba381565b611d50612377565b611d586124e9565b600854821015611d9d576040517f08c379a0000000000000000000000000000000000000000000000000000000008152600401611d94906131fc565b60405180910390fd5b611da68161252a565b611de5576040517f08c379a0000000000000000000000000000000000000000000000000000000008152600401611ddc90613264565b60405180910390fd5b817f000000000000000000000000000000000000000000000000000000000000000073ffffffffffffffffffffffffffffffffffffffff166370a08231336040518263ffffffff1660e01b8152600401611e3f9190612c85565b602060405180830381865afa158015611e5a573d5f5f3e3d5ffd5b505050506040513d601f19601f82011682018060405250810190611e7e919061305a565b1015611ebf576040517f08c379a0000000000000000000000000000000000000000000000000000000008152600401611eb69061337b565b60405180910390fd5b7f000000000000000000000000000000000000000000000000000000000000000073ffffffffffffffffffffffffffffffffffffffff166323b872dd3330856040518463ffffffff1660e01b8152600401611f1c93929190613399565b6020604051808303815f875af1158015611f38573d5f5f3e3d5ffd5b505050506040513d601f19601f82011682018060405250810190611f5c9190612fb3565b611f9b576040517f08c379a0000000000000000000000000000000000000000000000000000000008152600401611f9290613028565b60405180910390fd5b5f60035f3373ffffffffffffffffffffffffffffffffffffffff1673ffffffffffffffffffffffffffffffffffffffff1681526020019081526020015f2054905060405180608001604052808481526020014281526020018381526020015f151581525060025f3373ffffffffffffffffffffffffffffffffffffffff1673ffffffffffffffffffffffffffffffffffffffff1681526020019081526020015f205f8381526020019081526020015f205f820151815f015560208201518160010155604082015181600201556060820151816003015f6101000a81548160ff02191690831515021790555090505060035f3373ffffffffffffffffffffffffffffffffffffffff1673ffffffffffffffffffffffffffffffffffffffff1681526020019081526020015f205f8154809291906120d6906132ea565b919050555060045f3373ffffffffffffffffffffffffffffffffffffffff1673ffffffffffffffffffffffffffffffffffffffff1681526020019081526020015f206002015f81548092919061212b906132ea565b91905055505f60045f3373ffffffffffffffffffffffffffffffffffffffff1673ffffffffffffffffffffffffffffffffffffffff1681526020019081526020015f205f01540361218e5760075f815480929190612188906132ea565b91905055505b8260045f3373ffffffffffffffffffffffffffffffffffffffff1673ffffffffffffffffffffffffffffffffffffffff1681526020019081526020015f205f015f8282546121dc9190612dd2565b925050819055508260055f8282546121f49190612dd2565b92505081905550803373ffffffffffffffffffffffffffffffffffffffff167f9cfd25589d1eb8ad71e342a86a8524e83522e3936c0803048c08f6d9ad974f40858586426122429190612dd2565b60405161225193929190612c41565b60405180910390a3506122626123bb565b5050565b60075481565b6122746122f0565b5f73ffffffffffffffffffffffffffffffffffffffff168173ffffffffffffffffffffffffffffffffffffffff16036122e4575f6040517f1e4fbdf70000000000000000000000000000000000000000000000000000000081526004016122db9190612c85565b60405180910390fd5b6122ed81612426565b50565b6122f86125cf565b73ffffffffffffffffffffffffffffffffffffffff16612316611ce5565b73ffffffffffffffffffffffffffffffffffffffff1614612375576123396125cf565b6040517f118cdaa700000000000000000000000000000000000000000000000000000000815260040161236c9190612c85565b60405180910390fd5b565b60025f54036123b2576040517f3ee5aeb500000000000000000000000000000000000000000000000000000000815260040160405180910390fd5b60025f81905550565b60015f81905550565b6123cc6125d6565b5f600160146101000a81548160ff0219169083151502179055507f5db9ee0a495bf2e6ff9c91a7834c1ba4fdd244a5e8aa4e537bd38aeae4b073aa61240f6125cf565b60405161241c9190612c85565b60405180910390a1565b5f60015f9054906101000a900473ffffffffffffffffffffffffffffffffffffffff1690508160015f6101000a81548173ffffffffffffffffffffffffffffffffffffffff021916908373ffffffffffffffffffffffffffffffffffffffff1602179055508173ffffffffffffffffffffffffffffffffffffffff168173ffffffffffffffffffffffffffffffffffffffff167f8be0079c531659141344cd1fd0a4f28419497f9722a3daafe3b4186f6b6457e060405160405180910390a35050565b6124f1611429565b15612528576040517fd93c066500000000000000000000000000000000000000000000000000000000815260040160405180910390fd5b565b5f62093a8082148061253e575062278d0082145b8061254b57506276a70082145b80612558575062ed4e0082145b8061256657506301e1338082145b9050919050565b6125756124e9565b60018060146101000a81548160ff0219169083151502179055507f62e78cea01bee320cd4e420270b5ea74000d11b0c9f74754ebdbfc544b05a2586125b86125cf565b6040516125c59190612c85565b60405180910390a1565b5f33905090565b6125de611429565b612614576040517f8dfc202b00000000000000000000000000000000000000000000000000000000815260040160405180910390fd5b565b5f5ffd5b5f819050919050565b61262c8161261a565b8114612636575f5ffd5b50565b5f8135905061264781612623565b92915050565b5f6020828403121561266257612661612616565b5b5f61266f84828501612639565b91505092915050565b5f73ffffffffffffffffffffffffffffffffffffffff82169050919050565b5f6126a182612678565b9050919050565b6126b181612697565b81146126bb575f5ffd5b50565b5f813590506126cc816126a8565b92915050565b5f5f604083850312156126e8576126e7612616565b5b5f6126f5858286016126be565b925050602061270685828601612639565b9150509250929050565b6127198161261a565b82525050565b5f8115159050919050565b6127338161271f565b82525050565b5f60c08201905061274c5f830189612710565b6127596020830188612710565b6127666040830187612710565b6127736060830186612710565b612780608083018561272a565b61278d60a083018461272a565b979650505050505050565b5f81519050919050565b5f82825260208201905092915050565b5f819050602082019050919050565b6127ca8161261a565b82525050565b5f6127db83836127c1565b60208301905092915050565b5f602082019050919050565b5f6127fd82612798565b61280781856127a2565b9350612812836127b2565b805f5b8381101561284257815161282988826127d0565b9750612834836127e7565b925050600181019050612815565b5085935050505092915050565b5f81519050919050565b5f82825260208201905092915050565b5f819050602082019050919050565b5f81519050919050565b5f82825260208201905092915050565b8281835e5f83830152505050565b5f601f19601f8301169050919050565b5f6128ba82612878565b6128c48185612882565b93506128d4818560208601612892565b6128dd816128a0565b840191505092915050565b5f6128f383836128b0565b905092915050565b5f602082019050919050565b5f6129118261284f565b61291b8185612859565b93508360208202850161292d85612869565b805f5b85811015612968578484038952815161294985826128e8565b9450612954836128fb565b925060208a01995050600181019050612930565b50829750879550505050505092915050565b5f6040820190508181035f83015261299281856127f3565b905081810360208301526129a68184612907565b90509392505050565b5f6020820190506129c25f830184612710565b92915050565b5f6080820190506129db5f830187612710565b6129e86020830186612710565b6129f56040830185612710565b612a02606083018461272a565b95945050505050565b5f602082019050612a1e5f83018461272a565b92915050565b5f819050919050565b5f612a47612a42612a3d84612678565b612a24565b612678565b9050919050565b5f612a5882612a2d565b9050919050565b5f612a6982612a4e565b9050919050565b612a7981612a5f565b82525050565b5f602082019050612a925f830184612a70565b92915050565b5f5f60408385031215612aae57612aad612616565b5b5f612abb85828601612639565b9250506020612acc85828601612639565b9150509250929050565b5f60208284031215612aeb57612aea612616565b5b5f612af8848285016126be565b91505092915050565b5f81519050919050565b5f82825260208201905092915050565b5f819050602082019050919050565b612b338161271f565b82525050565b5f612b448383612b2a565b60208301905092915050565b5f602082019050919050565b5f612b6682612b01565b612b708185612b0b565b9350612b7b83612b1b565b805f5b83811015612bab578151612b928882612b39565b9750612b9d83612b50565b925050600181019050612b7e565b5085935050505092915050565b5f60c0820190508181035f830152612bd081896127f3565b90508181036020830152612be481886127f3565b90508181036040830152612bf881876127f3565b90508181036060830152612c0c81866127f3565b90508181036080830152612c208185612b5c565b905081810360a0830152612c348184612b5c565b9050979650505050505050565b5f606082019050612c545f830186612710565b612c616020830185612710565b612c6e6040830184612710565b949350505050565b612c7f81612697565b82525050565b5f602082019050612c985f830184612c76565b92915050565b5f82825260208201905092915050565b7f416d6f756e74206d757374206265203e203000000000000000000000000000005f82015250565b5f612ce2601283612c9e565b9150612ced82612cae565b602082019050919050565b5f6020820190508181035f830152612d0f81612cd6565b9050919050565b5f604082019050612d295f830185612710565b612d366020830184612710565b9392505050565b7f496e76616c6964207374616b65204944000000000000000000000000000000005f82015250565b5f612d71601083612c9e565b9150612d7c82612d3d565b602082019050919050565b5f6020820190508181035f830152612d9e81612d65565b9050919050565b7f4e487b71000000000000000000000000000000000000000000000000000000005f52601160045260245ffd5b5f612ddc8261261a565b9150612de78361261a565b9250828201905080821115612dff57612dfe612da5565b5b92915050565b7f4e487b71000000000000000000000000000000000000000000000000000000005f52604160045260245ffd5b7f4e487b71000000000000000000000000000000000000000000000000000000005f52603260045260245ffd5b7f416c72656164792077697468647261776e0000000000000000000000000000005f82015250565b5f612e93601183612c9e565b9150612e9e82612e5f565b602082019050919050565b5f6020820190508181035f830152612ec081612e87565b9050919050565b7f4c6f636b20706572696f64206e6f7420656e64656400000000000000000000005f82015250565b5f612efb601583612c9e565b9150612f0682612ec7565b602082019050919050565b5f6020820190508181035f830152612f2881612eef565b9050919050565b5f612f398261261a565b9150612f448361261a565b9250828203905081811115612f5c57612f5b612da5565b5b92915050565b5f604082019050612f755f830185612c76565b612f826020830184612710565b9392505050565b612f928161271f565b8114612f9c575f5ffd5b50565b5f81519050612fad81612f89565b92915050565b5f60208284031215612fc857612fc7612616565b5b5f612fd584828501612f9f565b91505092915050565b7f5472616e73666572206661696c656400000000000000000000000000000000005f82015250565b5f613012600f83612c9e565b915061301d82612fde565b602082019050919050565b5f6020820190508181035f83015261303f81613006565b9050919050565b5f8151905061305481612623565b92915050565b5f6020828403121561306f5761306e612616565b5b5f61307c84828501613046565b91505092915050565b7f43616e6e6f74207265636f766572207374616b696e6720746f6b656e000000005f82015250565b5f6130b9601c83612c9e565b91506130c482613085565b602082019050919050565b5f6020820190508181035f8301526130e6816130ad565b9050919050565b7f557365206e6f726d616c20776974686472617720696e737465616400000000005f82015250565b5f613121601b83612c9e565b915061312c826130ed565b602082019050919050565b5f6020820190508181035f83015261314e81613115565b9050919050565b7f4e487b71000000000000000000000000000000000000000000000000000000005f52601260045260245ffd5b5f61318c8261261a565b91506131978361261a565b9250826131a7576131a6613155565b5b828204905092915050565b7f416d6f756e742062656c6f77206d696e696d756d0000000000000000000000005f82015250565b5f6131e6601483612c9e565b91506131f1826131b2565b602082019050919050565b5f6020820190508181035f830152613213816131da565b9050919050565b7f496e76616c6964206c6f636b20706572696f64000000000000000000000000005f82015250565b5f61324e601383612c9e565b91506132598261321a565b602082019050919050565b5f6020820190508181035f83015261327b81613242565b9050919050565b7f436f6e747261637420646964206e6f74207265636569766520746f6b656e73005f82015250565b5f6132b6601f83612c9e565b91506132c182613282565b602082019050919050565b5f6020820190508181035f8301526132e3816132aa565b9050919050565b5f6132f48261261a565b91507fffffffffffffffffffffffffffffffffffffffffffffffffffffffffffffffff820361332657613325612da5565b5b600182019050919050565b7f496e73756666696369656e742062616c616e63650000000000000000000000005f82015250565b5f613365601483612c9e565b915061337082613331565b602082019050919050565b5f6020820190508181035f83015261339281613359565b9050919050565b5f6060820190506133ac5f830186612c76565b6133b96020830185612c76565b6133c66040830184612710565b94935050505056fea2646970667358221220fc7635c6683b8a937031e89b3c92437937cdb2a59b9a6c6c3d59e7d54599f7d964736f6c634300081e0033","linkReferences":{}},"methodIdentifiers":{"LOCK_180_DAYS()":"82865218","LOCK_30_DAYS()":"7c6e5db7","LOCK_365_DAYS()":"51383f98","LOCK_7_DAYS()":"25133527","LOCK_90_DAYS()":"e37c3a55","PERMIT2_ADDRESS()":"e5777b77","emergencyRecoverTokens(address,uint256)":"3dcd2c1d","emergencyWithdraw(uint256)":"5312ea8e","getContractTokenBalance()":"317d9453","getStakeDetails(address,uint256)":"0f0a4fef","getUserStakes(address)":"842e2981","getValidLockPeriods()":"13e00b3c","minimumStakeAmount()":"6b036f45","owner()":"8da5cb5b","pause()":"8456cb59","paused()":"5c975abb","renounceOwnership()":"715018a6","setMinimumStakeAmount(uint256)":"0d29fcd4","stake(uint256,uint256)":"7b0472f0","stakeWithTransfer(uint256,uint256)":"e9cac418","stakes(address,uint256)":"584b62a1","stakingToken()":"72f702f3","totalStakedGlobal()":"a8513ffa","totalStakersCount()":"ed21d269","totalWithdrawnGlobal()":"966eab11","transferOwnership(address)":"f2fde38b","unpause()":"3f4ba83a","userStakeCount(address)":"b02e64a9","userStats(address)":"8a65d874","withdraw(uint256)":"2e1a7d4d"},"id":5}