{"abi":[{"type":"constructor","inputs":[{"name":"initialOwner","type":"address","internalType":"address"}],"stateMutability":"nonpayable"},{"type":"function","name":"DOMAIN_SEPARATOR","inputs":[],"outputs":[{"name":"","type":"bytes32","internalType":"bytes32"}],"stateMutability":"view"},{"type":"function","name":"MAX_SUPPLY","inputs":[],"outputs":[{"name":"","type":"uint256","internalType":"uint256"}],"stateMutability":"view"},{"type":"function","name":"allowance","inputs":[{"name":"owner","type":"address","internalType":"address"},{"name":"spender","type":"address","internalType":"address"}],"outputs":[{"name":"","type":"uint256","internalType":"uint256"}],"stateMutability":"view"},{"type":"function","name":"approve","inputs":[{"name":"spender","type":"address","internalType":"address"},{"name":"value","type":"uint256","internalType":"uint256"}],"outputs":[{"name":"","type":"bool","internalType":"bool"}],"stateMutability":"nonpayable"},{"type":"function","name":"balanceOf","inputs":[{"name":"account","type":"address","internalType":"address"}],"outputs":[{"name":"","type":"uint256","internalType":"uint256"}],"stateMutability":"view"},{"type":"function","name":"burn","inputs":[{"name":"value","type":"uint256","internalType":"uint256"}],"outputs":[],"stateMutability":"nonpayable"},{"type":"function","name":"burnFrom","inputs":[{"name":"account","type":"address","internalType":"address"},{"name":"value","type":"uint256","internalType":"uint256"}],"outputs":[],"stateMutability":"nonpayable"},{"type":"function","name":"debugTokenInfo","inputs":[],"outputs":[{"name":"","type":"string","internalType":"string"},{"name":"","type":"string","internalType":"string"}],"stateMutability":"view"},{"type":"function","name":"decimals","inputs":[],"outputs":[{"name":"","type":"uint8","internalType":"uint8"}],"stateMutability":"view"},{"type":"function","name":"eip712Domain","inputs":[],"outputs":[{"name":"fields","type":"bytes1","internalType":"bytes1"},{"name":"name","type":"string","internalType":"string"},{"name":"version","type":"string","internalType":"string"},{"name":"chainId","type":"uint256","internalType":"uint256"},{"name":"verifyingContract","type":"address","internalType":"address"},{"name":"salt","type":"bytes32","internalType":"bytes32"},{"name":"extensions","type":"uint256[]","internalType":"uint256[]"}],"stateMutability":"view"},{"type":"function","name":"mint","inputs":[{"name":"to","type":"address","internalType":"address"},{"name":"amount","type":"uint256","internalType":"uint256"}],"outputs":[],"stateMutability":"nonpayable"},{"type":"function","name":"name","inputs":[],"outputs":[{"name":"","type":"string","internalType":"string"}],"stateMutability":"view"},{"type":"function","name":"nonces","inputs":[{"name":"owner","type":"address","internalType":"address"}],"outputs":[{"name":"","type":"uint256","internalType":"uint256"}],"stateMutability":"view"},{"type":"function","name":"owner","inputs":[],"outputs":[{"name":"","type":"address","internalType":"address"}],"stateMutability":"view"},{"type":"function","name":"permit","inputs":[{"name":"owner","type":"address","internalType":"address"},{"name":"spender","type":"address","internalType":"address"},{"name":"value","type":"uint256","internalType":"uint256"},{"name":"deadline","type":"uint256","internalType":"uint256"},{"name":"v","type":"uint8","internalType":"uint8"},{"name":"r","type":"bytes32","internalType":"bytes32"},{"name":"s","type":"bytes32","internalType":"bytes32"}],"outputs":[],"stateMutability":"nonpayable"},{"type":"function","name":"renounceOwnership","inputs":[],"outputs":[],"stateMutability":"nonpayable"},{"type":"function","name":"setTokenURI","inputs":[{"name":"newTokenURI","type":"string","internalType":"string"}],"outputs":[],"stateMutability":"nonpayable"},{"type":"function","name":"symbol","inputs":[],"outputs":[{"name":"","type":"string","internalType":"string"}],"stateMutability":"view"},{"type":"function","name":"tokenURI","inputs":[],"outputs":[{"name":"","type":"string","internalType":"string"}],"stateMutability":"view"},{"type":"function","name":"totalSupply","inputs":[],"outputs":[{"name":"","type":"uint256","internalType":"uint256"}],"stateMutability":"view"},{"type":"function","name":"transfer","inputs":[{"name":"to","type":"address","internalType":"address"},{"name":"value","type":"uint256","internalType":"uint256"}],"outputs":[{"name":"","type":"bool","internalType":"bool"}],"stateMutability":"nonpayable"},{"type":"function","name":"transferFrom","inputs":[{"name":"from","type":"address","internalType":"address"},{"name":"to","type":"address","internalType":"address"},{"name":"value","type":"uint256","internalType":"uint256"}],"outputs":[{"name":"","type":"bool","internalType":"bool"}],"stateMutability":"nonpayable"},{"type":"function","name":"transferOwnership","inputs":[{"name":"newOwner","type":"address","internalType":"address"}],"outputs":[],"stateMutability":"nonpayable"},{"type":"event","name":"Approval","inputs":[{"name":"owner","type":"address","indexed":true,"internalType":"address"},{"name":"spender","type":"address","indexed":true,"internalType":"address"},{"name":"value","type":"uint256","indexed":false,"internalType":"uint256"}],"anonymous":false},{"type":"event","name":"EIP712DomainChanged","inputs":[],"anonymous":false},{"type":"event","name":"OwnershipTransferred","inputs":[{"name":"previousOwner","type":"address","indexed":true,"internalType":"address"},{"name":"newOwner","type":"address","indexed":true,"internalType":"address"}],"anonymous":false},{"type":"event","name":"TokenCreated","inputs":[{"name":"name","type":"string","indexed":false,"internalType":"string"},{"name":"symbol","type":"string","indexed":false,"internalType":"string"},{"name":"owner","type":"address","indexed":false,"internalType":"address"},{"name":"initialSupply","type":"uint256","indexed":false,"internalType":"uint256"}],"anonymous":false},{"type":"event","name":"Transfer","inputs":[{"name":"from","type":"address","indexed":true,"internalType":"address"},{"name":"to","type":"address","indexed":true,"internalType":"address"},{"name":"value","type":"uint256","indexed":false,"internalType":"uint256"}],"anonymous":false},{"type":"error","name":"ECDSAInvalidSignature","inputs":[]},{"type":"error","name":"ECDSAInvalidSignatureLength","inputs":[{"name":"length","type":"uint256","internalType":"uint256"}]},{"type":"error","name":"ECDSAInvalidSignatureS","inputs":[{"name":"s","type":"bytes32","internalType":"bytes32"}]},{"type":"error","name":"ERC20InsufficientAllowance","inputs":[{"name":"spender","type":"address","internalType":"address"},{"name":"allowance","type":"uint256","internalType":"uint256"},{"name":"needed","type":"uint256","internalType":"uint256"}]},{"type":"error","name":"ERC20InsufficientBalance","inputs":[{"name":"sender","type":"address","internalType":"address"},{"name":"balance","type":"uint256","internalType":"uint256"},{"name":"needed","type":"uint256","internalType":"uint256"}]},{"type":"error","name":"ERC20InvalidApprover","inputs":[{"name":"approver","type":"address","internalType":"address"}]},{"type":"error","name":"ERC20InvalidReceiver","inputs":[{"name":"receiver","type":"address","internalType":"address"}]},{"type":"error","name":"ERC20InvalidSender","inputs":[{"name":"sender","type":"address","internalType":"address"}]},{"type":"error","name":"ERC20InvalidSpender","inputs":[{"name":"spender","type":"address","internalType":"address"}]},{"type":"error","name":"ERC2612ExpiredSignature","inputs":[{"name":"deadline","type":"uint256","internalType":"uint256"}]},{"type":"error","name":"ERC2612InvalidSigner","inputs":[{"name":"signer","type":"address","internalType":"address"},{"name":"owner","type":"address","internalType":"address"}]},{"type":"error","name":"InvalidAccountNonce","inputs":[{"name":"account","type":"address","internalType":"address"},{"name":"currentNonce","type":"uint256","internalType":"uint256"}]},{"type":"error","name":"InvalidShortString","inputs":[]},{"type":"error","name":"OwnableInvalidOwner","inputs":[{"name":"owner","type":"address","internalType":"address"}]},{"type":"error","name":"OwnableUnauthorizedAccount","inputs":[{"name":"account","type":"address","internalType":"address"}]},{"type":"error","name":"StringTooLong","inputs":[{"name":"str","type":"string","internalType":"string"}]}],"bytecode":{"object":"0x610160604052348015610010575f5ffd5b5060405161349538038061349583398181016040528101906100329190610796565b6040518060400160405280600581526020017f424c4f4f4d000000000000000000000000000000000000000000000000000000815250806040518060400160405280600181526020017f3100000000000000000000000000000000000000000000000000000000000000815250836040518060400160405280600581526020017f424c4f4f4d0000000000000000000000000000000000000000000000000000008152506040518060400160405280600381526020017f424c4d0000000000000000000000000000000000000000000000000000000000815250816003908161011b91906109fe565b50806004908161012b91906109fe565b5050505f73ffffffffffffffffffffffffffffffffffffffff168173ffffffffffffffffffffffffffffffffffffffff160361019e575f6040517f1e4fbdf70000000000000000000000000000000000000000000000000000000081526004016101959190610adc565b60405180910390fd5b6101ad816102c260201b60201c565b506101c260068361038560201b90919060201c565b61012081815250506101de60078261038560201b90919060201c565b6101408181525050818051906020012060e08181525050808051906020012061010081815250504660a0818152505061021b6103d260201b60201c565b608081815250503073ffffffffffffffffffffffffffffffffffffffff1660c08173ffffffffffffffffffffffffffffffffffffffff16815250505050507f03c72c8d5c202544898d097c3e186d5aefaa87c108f24630b2e78f5d7e48727b816c0c9f2c9cd04674edea40000000604051610297929190610bd2565b60405180910390a16102bc816c0c9f2c9cd04674edea4000000061042c60201b60201c565b50610e4e565b5f60055f9054906101000a900473ffffffffffffffffffffffffffffffffffffffff1690508160055f6101000a81548173ffffffffffffffffffffffffffffffffffffffff021916908373ffffffffffffffffffffffffffffffffffffffff1602179055508173ffffffffffffffffffffffffffffffffffffffff168173ffffffffffffffffffffffffffffffffffffffff167f8be0079c531659141344cd1fd0a4f28419497f9722a3daafe3b4186f6b6457e060405160405180910390a35050565b5f6020835110156103a65761039f836104b160201b60201c565b90506103cc565b826103b68361051660201b60201c565b5f0190816103c491906109fe565b5060ff5f1b90505b92915050565b5f7f8b73c3c69bb8fe3d512ecc4cf759cc79239f7b179b0ffacaa9a75d522b39400f60e051610100514630604051602001610411959493929190610c46565b60405160208183030381529060405280519060200120905090565b5f73ffffffffffffffffffffffffffffffffffffffff168273ffffffffffffffffffffffffffffffffffffffff160361049c575f6040517fec442f050000000000000000000000000000000000000000000000000000000081526004016104939190610adc565b60405180910390fd5b6104ad5f838361051f60201b60201c565b5050565b5f5f829050601f815111156104fd57826040517f305a27a90000000000000000000000000000000000000000000000000000000081526004016104f49190610ced565b60405180910390fd5b80518161050990610d3a565b5f1c175f1b915050919050565b5f819050919050565b5f73ffffffffffffffffffffffffffffffffffffffff168373ffffffffffffffffffffffffffffffffffffffff160361056f578060025f8282546105639190610dcd565b9250508190555061063d565b5f5f5f8573ffffffffffffffffffffffffffffffffffffffff1673ffffffffffffffffffffffffffffffffffffffff1681526020019081526020015f20549050818110156105f8578381836040517fe450d38c0000000000000000000000000000000000000000000000000000000081526004016105ef93929190610e00565b60405180910390fd5b8181035f5f8673ffffffffffffffffffffffffffffffffffffffff1673ffffffffffffffffffffffffffffffffffffffff1681526020019081526020015f2081905550505b5f73ffffffffffffffffffffffffffffffffffffffff168273ffffffffffffffffffffffffffffffffffffffff1603610684578060025f82825403925050819055506106ce565b805f5f8473ffffffffffffffffffffffffffffffffffffffff1673ffffffffffffffffffffffffffffffffffffffff1681526020019081526020015f205f82825401925050819055505b8173ffffffffffffffffffffffffffffffffffffffff168373ffffffffffffffffffffffffffffffffffffffff167fddf252ad1be2c89b69c2b068fc378daa952ba7f163c4a11628f55a4df523b3ef8360405161072b9190610e35565b60405180910390a3505050565b5f5ffd5b5f73ffffffffffffffffffffffffffffffffffffffff82169050919050565b5f6107658261073c565b9050919050565b6107758161075b565b811461077f575f5ffd5b50565b5f815190506107908161076c565b92915050565b5f602082840312156107ab576107aa610738565b5b5f6107b884828501610782565b91505092915050565b5f81519050919050565b7f4e487b71000000000000000000000000000000000000000000000000000000005f52604160045260245ffd5b7f4e487b71000000000000000000000000000000000000000000000000000000005f52602260045260245ffd5b5f600282049050600182168061083c57607f821691505b60208210810361084f5761084e6107f8565b5b50919050565b5f819050815f5260205f209050919050565b5f6020601f8301049050919050565b5f82821b905092915050565b5f600883026108b17fffffffffffffffffffffffffffffffffffffffffffffffffffffffffffffffff82610876565b6108bb8683610876565b95508019841693508086168417925050509392505050565b5f819050919050565b5f819050919050565b5f6108ff6108fa6108f5846108d3565b6108dc565b6108d3565b9050919050565b5f819050919050565b610918836108e5565b61092c61092482610906565b848454610882565b825550505050565b5f5f905090565b610943610934565b61094e81848461090f565b505050565b5b81811015610971576109665f8261093b565b600181019050610954565b5050565b601f8211156109b65761098781610855565b61099084610867565b8101602085101561099f578190505b6109b36109ab85610867565b830182610953565b50505b505050565b5f82821c905092915050565b5f6109d65f19846008026109bb565b1980831691505092915050565b5f6109ee83836109c7565b9150826002028217905092915050565b610a07826107c1565b67ffffffffffffffff811115610a2057610a1f6107cb565b5b610a2a8254610825565b610a35828285610975565b5f60209050601f831160018114610a66575f8415610a54578287015190505b610a5e85826109e3565b865550610ac5565b601f198416610a7486610855565b5f5b82811015610a9b57848901518255600182019150602085019450602081019050610a76565b86831015610ab85784890151610ab4601f8916826109c7565b8355505b6001600288020188555050505b505050505050565b610ad68161075b565b82525050565b5f602082019050610aef5f830184610acd565b92915050565b5f82825260208201905092915050565b7f424c4f4f4d0000000000000000000000000000000000000000000000000000005f82015250565b5f610b39600583610af5565b9150610b4482610b05565b602082019050919050565b7f424c4d00000000000000000000000000000000000000000000000000000000005f82015250565b5f610b83600383610af5565b9150610b8e82610b4f565b602082019050919050565b5f819050919050565b5f610bbc610bb7610bb284610b99565b6108dc565b6108d3565b9050919050565b610bcc81610ba2565b82525050565b5f6080820190508181035f830152610be981610b2d565b90508181036020830152610bfc81610b77565b9050610c0b6040830185610acd565b610c186060830184610bc3565b9392505050565b5f819050919050565b610c3181610c1f565b82525050565b610c40816108d3565b82525050565b5f60a082019050610c595f830188610c28565b610c666020830187610c28565b610c736040830186610c28565b610c806060830185610c37565b610c8d6080830184610acd565b9695505050505050565b8281835e5f83830152505050565b5f601f19601f8301169050919050565b5f610cbf826107c1565b610cc98185610af5565b9350610cd9818560208601610c97565b610ce281610ca5565b840191505092915050565b5f6020820190508181035f830152610d058184610cb5565b905092915050565b5f81519050919050565b5f819050602082019050919050565b5f610d318251610c1f565b80915050919050565b5f610d4482610d0d565b82610d4e84610d17565b9050610d5981610d26565b92506020821015610d9957610d947fffffffffffffffffffffffffffffffffffffffffffffffffffffffffffffffff83602003600802610876565b831692505b5050919050565b7f4e487b71000000000000000000000000000000000000000000000000000000005f52601160045260245ffd5b5f610dd7826108d3565b9150610de2836108d3565b9250828201905080821115610dfa57610df9610da0565b5b92915050565b5f606082019050610e135f830186610acd565b610e206020830185610c37565b610e2d6040830184610c37565b949350505050565b5f602082019050610e485f830184610c37565b92915050565b60805160a05160c05160e0516101005161012051610140516125f6610e9f5f395f61102d01525f610ff201525f61152601525f61150501525f610ca801525f610cfe01525f610d2701526125f65ff3fe608060405234801561000f575f5ffd5b506004361061014b575f3560e01c8063715018a6116100c157806395d89b411161007a57806395d89b4114610382578063a9059cbb146103a0578063d505accf146103d0578063dd62ed3e146103ec578063e0df5b6f1461041c578063f2fde38b146104385761014b565b8063715018a6146102cb57806378ce4242146102d557806379cc6790146102f45780637ecebe001461031057806384b0196e146103405780638da5cb5b146103645761014b565b806332cb6b0c1161011357806332cb6b0c146102095780633644e515146102275780633c130d901461024557806340c10f191461026357806342966c681461027f57806370a082311461029b5761014b565b806306fdde031461014f578063095ea7b31461016d57806318160ddd1461019d57806323b872dd146101bb578063313ce567146101eb575b5f5ffd5b610157610454565b60405161016491906119dc565b60405180910390f35b61018760048036038101906101829190611a9a565b6104e4565b6040516101949190611af2565b60405180910390f35b6101a5610506565b6040516101b29190611b1a565b60405180910390f35b6101d560048036038101906101d09190611b33565b61050f565b6040516101e29190611af2565b60405180910390f35b6101f361053d565b6040516102009190611b9e565b60405180910390f35b610211610545565b60405161021e9190611b1a565b60405180910390f35b61022f610556565b60405161023c9190611bcf565b60405180910390f35b61024d610564565b60405161025a91906119dc565b60405180910390f35b61027d60048036038101906102789190611a9a565b6105f4565b005b61029960048036038101906102949190611be8565b61066c565b005b6102b560048036038101906102b09190611c13565b610680565b6040516102c29190611b1a565b60405180910390f35b6102d36106c5565b005b6102dd6106d8565b6040516102eb929190611c3e565b60405180910390f35b61030e60048036038101906103099190611a9a565b6106f3565b005b61032a60048036038101906103259190611c13565b610713565b6040516103379190611b1a565b60405180910390f35b610348610724565b60405161035b9796959493929190611d73565b60405180910390f35b61036c6107c9565b6040516103799190611df5565b60405180910390f35b61038a6107f1565b60405161039791906119dc565b60405180910390f35b6103ba60048036038101906103b59190611a9a565b610881565b6040516103c79190611af2565b60405180910390f35b6103ea60048036038101906103e59190611e62565b6108a3565b005b61040660048036038101906104019190611eff565b6109e8565b6040516104139190611b1a565b60405180910390f35b61043660048036038101906104319190612069565b610a6a565b005b610452600480360381019061044d9190611c13565b610a85565b005b606060038054610463906120dd565b80601f016020809104026020016040519081016040528092919081815260200182805461048f906120dd565b80156104da5780601f106104b1576101008083540402835291602001916104da565b820191905f5260205f20905b8154815290600101906020018083116104bd57829003601f168201915b5050505050905090565b5f5f6104ee610b09565b90506104fb818585610b10565b600191505092915050565b5f600254905090565b5f5f610519610b09565b9050610526858285610b22565b610531858585610bb5565b60019150509392505050565b5f6012905090565b6c0c9f2c9cd04674edea4000000081565b5f61055f610ca5565b905090565b606060098054610573906120dd565b80601f016020809104026020016040519081016040528092919081815260200182805461059f906120dd565b80156105ea5780601f106105c1576101008083540402835291602001916105ea565b820191905f5260205f20905b8154815290600101906020018083116105cd57829003601f168201915b5050505050905090565b6105fc610d5b565b6c0c9f2c9cd04674edea4000000081610613610506565b61061d919061213a565b111561065e576040517f08c379a0000000000000000000000000000000000000000000000000000000008152600401610655906121b7565b60405180910390fd5b6106688282610de2565b5050565b61067d610677610b09565b82610e61565b50565b5f5f5f8373ffffffffffffffffffffffffffffffffffffffff1673ffffffffffffffffffffffffffffffffffffffff1681526020019081526020015f20549050919050565b6106cd610d5b565b6106d65f610ee0565b565b6060806106e3610454565b6106eb6107f1565b915091509091565b610705826106ff610b09565b83610b22565b61070f8282610e61565b5050565b5f61071d82610fa3565b9050919050565b5f6060805f5f5f6060610735610fe9565b61073d611024565b46305f5f1b5f67ffffffffffffffff81111561075c5761075b611f45565b5b60405190808252806020026020018201604052801561078a5781602001602082028036833780820191505090505b507f0f00000000000000000000000000000000000000000000000000000000000000959493929190965096509650965096509650965090919293949596565b5f60055f9054906101000a900473ffffffffffffffffffffffffffffffffffffffff16905090565b606060048054610800906120dd565b80601f016020809104026020016040519081016040528092919081815260200182805461082c906120dd565b80156108775780601f1061084e57610100808354040283529160200191610877565b820191905f5260205f20905b81548152906001019060200180831161085a57829003601f168201915b5050505050905090565b5f5f61088b610b09565b9050610898818585610bb5565b600191505092915050565b834211156108e857836040517f627913020000000000000000000000000000000000000000000000000000000081526004016108df9190611b1a565b60405180910390fd5b5f7f6e71edae12b1b97f4d1f60370fef10105fa2faae0126114a169c64845d6126c98888886109168c61105f565b8960405160200161092c969594939291906121d5565b6040516020818303038152906040528051906020012090505f61094e826110b2565b90505f61095d828787876110cb565b90508973ffffffffffffffffffffffffffffffffffffffff168173ffffffffffffffffffffffffffffffffffffffff16146109d157808a6040517f4b800e460000000000000000000000000000000000000000000000000000000081526004016109c8929190612234565b60405180910390fd5b6109dc8a8a8a610b10565b50505050505050505050565b5f60015f8473ffffffffffffffffffffffffffffffffffffffff1673ffffffffffffffffffffffffffffffffffffffff1681526020019081526020015f205f8373ffffffffffffffffffffffffffffffffffffffff1673ffffffffffffffffffffffffffffffffffffffff1681526020019081526020015f2054905092915050565b610a72610d5b565b8060099081610a8191906123fb565b5050565b610a8d610d5b565b5f73ffffffffffffffffffffffffffffffffffffffff168173ffffffffffffffffffffffffffffffffffffffff1603610afd575f6040517f1e4fbdf7000000000000000000000000000000000000000000000000000000008152600401610af49190611df5565b60405180910390fd5b610b0681610ee0565b50565b5f33905090565b610b1d83838360016110f9565b505050565b5f610b2d84846109e8565b90507fffffffffffffffffffffffffffffffffffffffffffffffffffffffffffffffff811015610baf5781811015610ba0578281836040517ffb8f41b2000000000000000000000000000000000000000000000000000000008152600401610b97939291906124ca565b60405180910390fd5b610bae84848484035f6110f9565b5b50505050565b5f73ffffffffffffffffffffffffffffffffffffffff168373ffffffffffffffffffffffffffffffffffffffff1603610c25575f6040517f96c6fd1e000000000000000000000000000000000000000000000000000000008152600401610c1c9190611df5565b60405180910390fd5b5f73ffffffffffffffffffffffffffffffffffffffff168273ffffffffffffffffffffffffffffffffffffffff1603610c95575f6040517fec442f05000000000000000000000000000000000000000000000000000000008152600401610c8c9190611df5565b60405180910390fd5b610ca08383836112c8565b505050565b5f7f000000000000000000000000000000000000000000000000000000000000000073ffffffffffffffffffffffffffffffffffffffff163073ffffffffffffffffffffffffffffffffffffffff16148015610d2057507f000000000000000000000000000000000000000000000000000000000000000046145b15610d4d577f00000000000000000000000000000000000000000000000000000000000000009050610d58565b610d556114e1565b90505b90565b610d63610b09565b73ffffffffffffffffffffffffffffffffffffffff16610d816107c9565b73ffffffffffffffffffffffffffffffffffffffff1614610de057610da4610b09565b6040517f118cdaa7000000000000000000000000000000000000000000000000000000008152600401610dd79190611df5565b60405180910390fd5b565b5f73ffffffffffffffffffffffffffffffffffffffff168273ffffffffffffffffffffffffffffffffffffffff1603610e52575f6040517fec442f05000000000000000000000000000000000000000000000000000000008152600401610e499190611df5565b60405180910390fd5b610e5d5f83836112c8565b5050565b5f73ffffffffffffffffffffffffffffffffffffffff168273ffffffffffffffffffffffffffffffffffffffff1603610ed1575f6040517f96c6fd1e000000000000000000000000000000000000000000000000000000008152600401610ec89190611df5565b60405180910390fd5b610edc825f836112c8565b5050565b5f60055f9054906101000a900473ffffffffffffffffffffffffffffffffffffffff1690508160055f6101000a81548173ffffffffffffffffffffffffffffffffffffffff021916908373ffffffffffffffffffffffffffffffffffffffff1602179055508173ffffffffffffffffffffffffffffffffffffffff168173ffffffffffffffffffffffffffffffffffffffff167f8be0079c531659141344cd1fd0a4f28419497f9722a3daafe3b4186f6b6457e060405160405180910390a35050565b5f60085f8373ffffffffffffffffffffffffffffffffffffffff1673ffffffffffffffffffffffffffffffffffffffff1681526020019081526020015f20549050919050565b606061101f60067f000000000000000000000000000000000000000000000000000000000000000061157690919063ffffffff16565b905090565b606061105a60077f000000000000000000000000000000000000000000000000000000000000000061157690919063ffffffff16565b905090565b5f60085f8373ffffffffffffffffffffffffffffffffffffffff1673ffffffffffffffffffffffffffffffffffffffff1681526020019081526020015f205f815480929190600101919050559050919050565b5f6110c46110be610ca5565b83611623565b9050919050565b5f5f5f5f6110db88888888611663565b9250925092506110eb828261174a565b829350505050949350505050565b5f73ffffffffffffffffffffffffffffffffffffffff168473ffffffffffffffffffffffffffffffffffffffff1603611169575f6040517fe602df050000000000000000000000000000000000000000000000000000000081526004016111609190611df5565b60405180910390fd5b5f73ffffffffffffffffffffffffffffffffffffffff168373ffffffffffffffffffffffffffffffffffffffff16036111d9575f6040517f94280d620000000000000000000000000000000000000000000000000000000081526004016111d09190611df5565b60405180910390fd5b8160015f8673ffffffffffffffffffffffffffffffffffffffff1673ffffffffffffffffffffffffffffffffffffffff1681526020019081526020015f205f8573ffffffffffffffffffffffffffffffffffffffff1673ffffffffffffffffffffffffffffffffffffffff1681526020019081526020015f208190555080156112c2578273ffffffffffffffffffffffffffffffffffffffff168473ffffffffffffffffffffffffffffffffffffffff167f8c5be1e5ebec7d5bd14f71427d1e84f3dd0314c0f7b2291e5b200ac8c7c3b925846040516112b99190611b1a565b60405180910390a35b50505050565b5f73ffffffffffffffffffffffffffffffffffffffff168373ffffffffffffffffffffffffffffffffffffffff1603611318578060025f82825461130c919061213a565b925050819055506113e6565b5f5f5f8573ffffffffffffffffffffffffffffffffffffffff1673ffffffffffffffffffffffffffffffffffffffff1681526020019081526020015f20549050818110156113a1578381836040517fe450d38c000000000000000000000000000000000000000000000000000000008152600401611398939291906124ca565b60405180910390fd5b8181035f5f8673ffffffffffffffffffffffffffffffffffffffff1673ffffffffffffffffffffffffffffffffffffffff1681526020019081526020015f2081905550505b5f73ffffffffffffffffffffffffffffffffffffffff168273ffffffffffffffffffffffffffffffffffffffff160361142d578060025f8282540392505081905550611477565b805f5f8473ffffffffffffffffffffffffffffffffffffffff1673ffffffffffffffffffffffffffffffffffffffff1681526020019081526020015f205f82825401925050819055505b8173ffffffffffffffffffffffffffffffffffffffff168373ffffffffffffffffffffffffffffffffffffffff167fddf252ad1be2c89b69c2b068fc378daa952ba7f163c4a11628f55a4df523b3ef836040516114d49190611b1a565b60405180910390a3505050565b5f7f8b73c3c69bb8fe3d512ecc4cf759cc79239f7b179b0ffacaa9a75d522b39400f7f00000000000000000000000000000000000000000000000000000000000000007f0000000000000000000000000000000000000000000000000000000000000000463060405160200161155b9594939291906124ff565b60405160208183030381529060405280519060200120905090565b606060ff5f1b83146115925761158b836118ac565b905061161d565b81805461159e906120dd565b80601f01602080910402602001604051908101604052809291908181526020018280546115ca906120dd565b80156116155780601f106115ec57610100808354040283529160200191611615565b820191905f5260205f20905b8154815290600101906020018083116115f857829003601f168201915b505050505090505b92915050565b5f6040517f190100000000000000000000000000000000000000000000000000000000000081528360028201528260228201526042812091505092915050565b5f5f5f7f7fffffffffffffffffffffffffffffff5d576e7357a4501ddfe92f46681b20a0845f1c111561169f575f600385925092509250611740565b5f6001888888886040515f81526020016040526040516116c29493929190612550565b6020604051602081039080840390855afa1580156116e2573d5f5f3e3d5ffd5b5050506020604051035190505f73ffffffffffffffffffffffffffffffffffffffff168173ffffffffffffffffffffffffffffffffffffffff1603611733575f60015f5f1b93509350935050611740565b805f5f5f1b935093509350505b9450945094915050565b5f600381111561175d5761175c612593565b5b8260038111156117705761176f612593565b5b03156118a8576001600381111561178a57611789612593565b5b82600381111561179d5761179c612593565b5b036117d4576040517ff645eedf00000000000000000000000000000000000000000000000000000000815260040160405180910390fd5b600260038111156117e8576117e7612593565b5b8260038111156117fb576117fa612593565b5b0361183f57805f1c6040517ffce698f70000000000000000000000000000000000000000000000000000000081526004016118369190611b1a565b60405180910390fd5b60038081111561185257611851612593565b5b82600381111561186557611864612593565b5b036118a757806040517fd78bce0c00000000000000000000000000000000000000000000000000000000815260040161189e9190611bcf565b60405180910390fd5b5b5050565b60605f6118b88361191e565b90505f602067ffffffffffffffff8111156118d6576118d5611f45565b5b6040519080825280601f01601f1916602001820160405280156119085781602001600182028036833780820191505090505b5090508181528360208201528092505050919050565b5f5f60ff835f1c169050601f811115611963576040517fb3512b0c00000000000000000000000000000000000000000000000000000000815260040160405180910390fd5b80915050919050565b5f81519050919050565b5f82825260208201905092915050565b8281835e5f83830152505050565b5f601f19601f8301169050919050565b5f6119ae8261196c565b6119b88185611976565b93506119c8818560208601611986565b6119d181611994565b840191505092915050565b5f6020820190508181035f8301526119f481846119a4565b905092915050565b5f604051905090565b5f5ffd5b5f5ffd5b5f73ffffffffffffffffffffffffffffffffffffffff82169050919050565b5f611a3682611a0d565b9050919050565b611a4681611a2c565b8114611a50575f5ffd5b50565b5f81359050611a6181611a3d565b92915050565b5f819050919050565b611a7981611a67565b8114611a83575f5ffd5b50565b5f81359050611a9481611a70565b92915050565b5f5f60408385031215611ab057611aaf611a05565b5b5f611abd85828601611a53565b9250506020611ace85828601611a86565b9150509250929050565b5f8115159050919050565b611aec81611ad8565b82525050565b5f602082019050611b055f830184611ae3565b92915050565b611b1481611a67565b82525050565b5f602082019050611b2d5f830184611b0b565b92915050565b5f5f5f60608486031215611b4a57611b49611a05565b5b5f611b5786828701611a53565b9350506020611b6886828701611a53565b9250506040611b7986828701611a86565b9150509250925092565b5f60ff82169050919050565b611b9881611b83565b82525050565b5f602082019050611bb15f830184611b8f565b92915050565b5f819050919050565b611bc981611bb7565b82525050565b5f602082019050611be25f830184611bc0565b92915050565b5f60208284031215611bfd57611bfc611a05565b5b5f611c0a84828501611a86565b91505092915050565b5f60208284031215611c2857611c27611a05565b5b5f611c3584828501611a53565b91505092915050565b5f6040820190508181035f830152611c5681856119a4565b90508181036020830152611c6a81846119a4565b90509392505050565b5f7fff0000000000000000000000000000000000000000000000000000000000000082169050919050565b611ca781611c73565b82525050565b611cb681611a2c565b82525050565b5f81519050919050565b5f82825260208201905092915050565b5f819050602082019050919050565b611cee81611a67565b82525050565b5f611cff8383611ce5565b60208301905092915050565b5f602082019050919050565b5f611d2182611cbc565b611d2b8185611cc6565b9350611d3683611cd6565b805f5b83811015611d66578151611d4d8882611cf4565b9750611d5883611d0b565b925050600181019050611d39565b5085935050505092915050565b5f60e082019050611d865f83018a611c9e565b8181036020830152611d9881896119a4565b90508181036040830152611dac81886119a4565b9050611dbb6060830187611b0b565b611dc86080830186611cad565b611dd560a0830185611bc0565b81810360c0830152611de78184611d17565b905098975050505050505050565b5f602082019050611e085f830184611cad565b92915050565b611e1781611b83565b8114611e21575f5ffd5b50565b5f81359050611e3281611e0e565b92915050565b611e4181611bb7565b8114611e4b575f5ffd5b50565b5f81359050611e5c81611e38565b92915050565b5f5f5f5f5f5f5f60e0888a031215611e7d57611e7c611a05565b5b5f611e8a8a828b01611a53565b9750506020611e9b8a828b01611a53565b9650506040611eac8a828b01611a86565b9550506060611ebd8a828b01611a86565b9450506080611ece8a828b01611e24565b93505060a0611edf8a828b01611e4e565b92505060c0611ef08a828b01611e4e565b91505092959891949750929550565b5f5f60408385031215611f1557611f14611a05565b5b5f611f2285828601611a53565b9250506020611f3385828601611a53565b9150509250929050565b5f5ffd5b5f5ffd5b7f4e487b71000000000000000000000000000000000000000000000000000000005f52604160045260245ffd5b611f7b82611994565b810181811067ffffffffffffffff82111715611f9a57611f99611f45565b5b80604052505050565b5f611fac6119fc565b9050611fb88282611f72565b919050565b5f67ffffffffffffffff821115611fd757611fd6611f45565b5b611fe082611994565b9050602081019050919050565b828183375f83830152505050565b5f61200d61200884611fbd565b611fa3565b90508281526020810184848401111561202957612028611f41565b5b612034848285611fed565b509392505050565b5f82601f8301126120505761204f611f3d565b5b8135612060848260208601611ffb565b91505092915050565b5f6020828403121561207e5761207d611a05565b5b5f82013567ffffffffffffffff81111561209b5761209a611a09565b5b6120a78482850161203c565b91505092915050565b7f4e487b71000000000000000000000000000000000000000000000000000000005f52602260045260245ffd5b5f60028204905060018216806120f457607f821691505b602082108103612107576121066120b0565b5b50919050565b7f4e487b71000000000000000000000000000000000000000000000000000000005f52601160045260245ffd5b5f61214482611a67565b915061214f83611a67565b92508282019050808211156121675761216661210d565b5b92915050565b7f45786365656473206d6178696d756d20746f6b656e20737570706c79000000005f82015250565b5f6121a1601c83611976565b91506121ac8261216d565b602082019050919050565b5f6020820190508181035f8301526121ce81612195565b9050919050565b5f60c0820190506121e85f830189611bc0565b6121f56020830188611cad565b6122026040830187611cad565b61220f6060830186611b0b565b61221c6080830185611b0b565b61222960a0830184611b0b565b979650505050505050565b5f6040820190506122475f830185611cad565b6122546020830184611cad565b9392505050565b5f819050815f5260205f209050919050565b5f6020601f8301049050919050565b5f82821b905092915050565b5f600883026122b77fffffffffffffffffffffffffffffffffffffffffffffffffffffffffffffffff8261227c565b6122c1868361227c565b95508019841693508086168417925050509392505050565b5f819050919050565b5f6122fc6122f76122f284611a67565b6122d9565b611a67565b9050919050565b5f819050919050565b612315836122e2565b61232961232182612303565b848454612288565b825550505050565b5f5f905090565b612340612331565b61234b81848461230c565b505050565b5b8181101561236e576123635f82612338565b600181019050612351565b5050565b601f8211156123b3576123848161225b565b61238d8461226d565b8101602085101561239c578190505b6123b06123a88561226d565b830182612350565b50505b505050565b5f82821c905092915050565b5f6123d35f19846008026123b8565b1980831691505092915050565b5f6123eb83836123c4565b9150826002028217905092915050565b6124048261196c565b67ffffffffffffffff81111561241d5761241c611f45565b5b61242782546120dd565b612432828285612372565b5f60209050601f831160018114612463575f8415612451578287015190505b61245b85826123e0565b8655506124c2565b601f1984166124718661225b565b5f5b8281101561249857848901518255600182019150602085019450602081019050612473565b868310156124b557848901516124b1601f8916826123c4565b8355505b6001600288020188555050505b505050505050565b5f6060820190506124dd5f830186611cad565b6124ea6020830185611b0b565b6124f76040830184611b0b565b949350505050565b5f60a0820190506125125f830188611bc0565b61251f6020830187611bc0565b61252c6040830186611bc0565b6125396060830185611b0b565b6125466080830184611cad565b9695505050505050565b5f6080820190506125635f830187611bc0565b6125706020830186611b8f565b61257d6040830185611bc0565b61258a6060830184611bc0565b95945050505050565b7f4e487b71000000000000000000000000000000000000000000000000000000005f52602160045260245ffdfea264697066735822122008bd00ea41914f84eb70f5975d83f3d71f64e02d7246b18bcfd911159897fe5c64736f6c634300081e0033","linkReferences":{}},"methodIdentifiers":{"DOMAIN_SEPARATOR()":"3644e515","MAX_SUPPLY()":"32cb6b0c","allowance(address,address)":"dd62ed3e","approve(address,uint256)":"095ea7b3","balanceOf(address)":"70a08231","burn(uint256)":"42966c68","burnFrom(address,uint256)":"79cc6790","debugTokenInfo()":"78ce4242","decimals()":"313ce567","eip712Domain()":"84b0196e","mint(address,uint256)":"40c10f19","name()":"06fdde03","nonces(address)":"7ecebe00","owner()":"8da5cb5b","permit(address,address,uint256,uint256,uint8,bytes32,bytes32)":"d505accf","renounceOwnership()":"715018a6","setTokenURI(string)":"e0df5b6f","symbol()":"95d89b41","tokenURI()":"3c130d90","totalSupply()":"18160ddd","transfer(address,uint256)":"a9059cbb","transferFrom(address,address,uint256)":"23b872dd","transferOwnership(address)":"f2fde38b"},"id":4}