{"abi":[{"type":"constructor","inputs":[{"name":"_bloomToken","type":"address","internalType":"address"},{"name":"initialOwner","type":"address","internalType":"address"}],"stateMutability":"nonpayable"},{"type":"function","name":"bloomToken","inputs":[],"outputs":[{"name":"","type":"address","internalType":"contract IERC20"}],"stateMutability":"view"},{"type":"function","name":"calculateRewards","inputs":[{"name":"user","type":"address","internalType":"address"},{"name":"stakeIndex","type":"uint256","internalType":"uint256"}],"outputs":[{"name":"","type":"uint256","internalType":"uint256"}],"stateMutability":"view"},{"type":"function","name":"claimRewards","inputs":[{"name":"stakeIndex","type":"uint256","internalType":"uint256"}],"outputs":[],"stateMutability":"nonpayable"},{"type":"function","name":"emergencyWithdraw","inputs":[{"name":"amount","type":"uint256","internalType":"uint256"}],"outputs":[],"stateMutability":"nonpayable"},{"type":"function","name":"getTotalPendingRewards","inputs":[{"name":"user","type":"address","internalType":"address"}],"outputs":[{"name":"","type":"uint256","internalType":"uint256"}],"stateMutability":"view"},{"type":"function","name":"getUserStakeCount","inputs":[{"name":"user","type":"address","internalType":"address"}],"outputs":[{"name":"","type":"uint256","internalType":"uint256"}],"stateMutability":"view"},{"type":"function","name":"getUserStakes","inputs":[{"name":"user","type":"address","internalType":"address"}],"outputs":[{"name":"","type":"tuple[]","internalType":"struct BloomStaking.StakeInfo[]","components":[{"name":"amount","type":"uint256","internalType":"uint256"},{"name":"stakeTime","type":"uint256","internalType":"uint256"},{"name":"lastClaimTime","type":"uint256","internalType":"uint256"},{"name":"isActive","type":"bool","internalType":"bool"}]}],"stateMutability":"view"},{"type":"function","name":"getUserTotalStaked","inputs":[{"name":"user","type":"address","internalType":"address"}],"outputs":[{"name":"","type":"uint256","internalType":"uint256"}],"stateMutability":"view"},{"type":"function","name":"minimumStakeAmount","inputs":[],"outputs":[{"name":"","type":"uint256","internalType":"uint256"}],"stateMutability":"view"},{"type":"function","name":"owner","inputs":[],"outputs":[{"name":"","type":"address","internalType":"address"}],"stateMutability":"view"},{"type":"function","name":"renounceOwnership","inputs":[],"outputs":[],"stateMutability":"nonpayable"},{"type":"function","name":"rewardRate","inputs":[],"outputs":[{"name":"","type":"uint256","internalType":"uint256"}],"stateMutability":"view"},{"type":"function","name":"setMinimumStakeAmount","inputs":[{"name":"_amount","type":"uint256","internalType":"uint256"}],"outputs":[],"stateMutability":"nonpayable"},{"type":"function","name":"setRewardRate","inputs":[{"name":"_rewardRate","type":"uint256","internalType":"uint256"}],"outputs":[],"stateMutability":"nonpayable"},{"type":"function","name":"setStakingDuration","inputs":[{"name":"_duration","type":"uint256","internalType":"uint256"}],"outputs":[],"stateMutability":"nonpayable"},{"type":"function","name":"stake","inputs":[{"name":"amount","type":"uint256","internalType":"uint256"}],"outputs":[],"stateMutability":"nonpayable"},{"type":"function","name":"stakingDuration","inputs":[],"outputs":[{"name":"","type":"uint256","internalType":"uint256"}],"stateMutability":"view"},{"type":"function","name":"totalStaked","inputs":[],"outputs":[{"name":"","type":"uint256","internalType":"uint256"}],"stateMutability":"view"},{"type":"function","name":"transferOwnership","inputs":[{"name":"newOwner","type":"address","internalType":"address"}],"outputs":[],"stateMutability":"nonpayable"},{"type":"function","name":"unstake","inputs":[{"name":"stakeIndex","type":"uint256","internalType":"uint256"}],"outputs":[],"stateMutability":"nonpayable"},{"type":"function","name":"userStakes","inputs":[{"name":"","type":"address","internalType":"address"},{"name":"","type":"uint256","internalType":"uint256"}],"outputs":[{"name":"amount","type":"uint256","internalType":"uint256"},{"name":"stakeTime","type":"uint256","internalType":"uint256"},{"name":"lastClaimTime","type":"uint256","internalType":"uint256"},{"name":"isActive","type":"bool","internalType":"bool"}],"stateMutability":"view"},{"type":"event","name":"OwnershipTransferred","inputs":[{"name":"previousOwner","type":"address","indexed":true,"internalType":"address"},{"name":"newOwner","type":"address","indexed":true,"internalType":"address"}],"anonymous":false},{"type":"event","name":"RewardRateUpdated","inputs":[{"name":"newRate","type":"uint256","indexed":false,"internalType":"uint256"}],"anonymous":false},{"type":"event","name":"RewardsClaimed","inputs":[{"name":"user","type":"address","indexed":true,"internalType":"address"},{"name":"amount","type":"uint256","indexed":false,"internalType":"uint256"}],"anonymous":false},{"type":"event","name":"Staked","inputs":[{"name":"user","type":"address","indexed":true,"internalType":"address"},{"name":"amount","type":"uint256","indexed":false,"internalType":"uint256"},{"name":"stakeIndex","type":"uint256","indexed":false,"internalType":"uint256"}],"anonymous":false},{"type":"event","name":"Unstaked","inputs":[{"name":"user","type":"address","indexed":true,"internalType":"address"},{"name":"amount","type":"uint256","indexed":false,"internalType":"uint256"},{"name":"stakeIndex","type":"uint256","indexed":false,"internalType":"uint256"}],"anonymous":false},{"type":"error","name":"OwnableInvalidOwner","inputs":[{"name":"owner","type":"address","internalType":"address"}]},{"type":"error","name":"OwnableUnauthorizedAccount","inputs":[{"name":"account","type":"address","internalType":"address"}]},{"type":"error","name":"ReentrancyGuardReentrantCall","inputs":[]}],"bytecode":{"object":"0x60a0604052600a600455683635c9adc5dea0000060055562278d00600655348015610028575f5ffd5b50604051612579380380612579833981810160405281019061004a919061022c565b805f73ffffffffffffffffffffffffffffffffffffffff168173ffffffffffffffffffffffffffffffffffffffff16036100bb575f6040517f1e4fbdf70000000000000000000000000000000000000000000000000000000081526004016100b29190610279565b60405180910390fd5b6100ca8161010d60201b60201c565b50600180819055508173ffffffffffffffffffffffffffffffffffffffff1660808173ffffffffffffffffffffffffffffffffffffffff16815250505050610292565b5f5f5f9054906101000a900473ffffffffffffffffffffffffffffffffffffffff169050815f5f6101000a81548173ffffffffffffffffffffffffffffffffffffffff021916908373ffffffffffffffffffffffffffffffffffffffff1602179055508173ffffffffffffffffffffffffffffffffffffffff168173ffffffffffffffffffffffffffffffffffffffff167f8be0079c531659141344cd1fd0a4f28419497f9722a3daafe3b4186f6b6457e060405160405180910390a35050565b5f5ffd5b5f73ffffffffffffffffffffffffffffffffffffffff82169050919050565b5f6101fb826101d2565b9050919050565b61020b816101f1565b8114610215575f5ffd5b50565b5f8151905061022681610202565b92915050565b5f5f60408385031215610242576102416101ce565b5b5f61024f85828601610218565b925050602061026085828601610218565b9150509250929050565b610273816101f1565b82525050565b5f60208201905061028c5f83018461026a565b92915050565b6080516122a56102d45f395f818161058c015281816108c4015281816109ed01528181610b6001528181610f9801528181611071015261140101526122a55ff3fe608060405234801561000f575f5ffd5b5060043610610135575f3560e01c80638005a7de116100b6578063a694fc3a1161007a578063a694fc3a14610311578063a8c478ba1461032d578063b2491e671461035d578063b5d5b5fa1461037b578063beb8314c146103ae578063f2fde38b146103de57610135565b80638005a7de1461026b578063817b1cd214610289578063842e2981146102a75780638da5cb5b146102d75780639e447fc6146102f557610135565b80636a8ca691116100fd5780636a8ca691146101d95780636b036f45146101f55780636e2f169614610213578063715018a6146102435780637b0a47ee1461024d57610135565b80630962ef79146101395780630d29fcd4146101555780631b545a17146101715780632e17de78146101a15780635312ea8e146101bd575b5f5ffd5b610153600480360381019061014e919061182a565b6103fa565b005b61016f600480360381019061016a919061182a565b6106bf565b005b61018b600480360381019061018691906118af565b6106d1565b60405161019891906118e9565b60405180910390f35b6101bb60048036038101906101b6919061182a565b61071a565b005b6101d760048036038101906101d2919061182a565b610b56565b005b6101f360048036038101906101ee919061182a565b610c42565b005b6101fd610c54565b60405161020a91906118e9565b60405180910390f35b61022d600480360381019061022891906118af565b610c5a565b60405161023a91906118e9565b60405180910390f35b61024b610d9f565b005b610255610db2565b60405161026291906118e9565b60405180910390f35b610273610db8565b60405161028091906118e9565b60405180910390f35b610291610dbe565b60405161029e91906118e9565b60405180910390f35b6102c160048036038101906102bc91906118af565b610dc4565b6040516102ce9190611a26565b60405180910390f35b6102df610e94565b6040516102ec9190611a55565b60405180910390f35b61030f600480360381019061030a919061182a565b610ebb565b005b61032b6004803603810190610326919061182a565b610f48565b005b610347600480360381019061034291906118af565b6112ce565b60405161035491906118e9565b60405180910390f35b6103656113ff565b6040516103729190611ac9565b60405180910390f35b61039560048036038101906103909190611ae2565b611423565b6040516103a59493929190611b2f565b60405180910390f35b6103c860048036038101906103c39190611ae2565b611475565b6040516103d591906118e9565b60405180910390f35b6103f860048036038101906103f391906118af565b6115d1565b005b610402611655565b60025f3373ffffffffffffffffffffffffffffffffffffffff1673ffffffffffffffffffffffffffffffffffffffff1681526020019081526020015f20805490508110610484576040517f08c379a000000000000000000000000000000000000000000000000000000000815260040161047b90611bcc565b60405180910390fd5b5f60025f3373ffffffffffffffffffffffffffffffffffffffff1673ffffffffffffffffffffffffffffffffffffffff1681526020019081526020015f2082815481106104d4576104d3611bea565b5b905f5260205f2090600402019050806003015f9054906101000a900460ff16610532576040517f08c379a000000000000000000000000000000000000000000000000000000000815260040161052990611c61565b60405180910390fd5b5f61053d3384611475565b90505f8111610581576040517f08c379a000000000000000000000000000000000000000000000000000000000815260040161057890611cc9565b60405180910390fd5b4282600201819055507f000000000000000000000000000000000000000000000000000000000000000073ffffffffffffffffffffffffffffffffffffffff1663a9059cbb33836040518363ffffffff1660e01b81526004016105e5929190611ce7565b6020604051808303815f875af1158015610601573d5f5f3e3d5ffd5b505050506040513d601f19601f820116820180604052508101906106259190611d38565b610664576040517f08c379a000000000000000000000000000000000000000000000000000000000815260040161065b90611dad565b60405180910390fd5b3373ffffffffffffffffffffffffffffffffffffffff167ffc30cddea38e2bf4d6ea7d3f9ed3b6ad7f176419f4963bd81318067a4aee73fe826040516106aa91906118e9565b60405180910390a250506106bc61169b565b50565b6106c76116a4565b8060058190555050565b5f60025f8373ffffffffffffffffffffffffffffffffffffffff1673ffffffffffffffffffffffffffffffffffffffff1681526020019081526020015f20805490509050919050565b610722611655565b60025f3373ffffffffffffffffffffffffffffffffffffffff1673ffffffffffffffffffffffffffffffffffffffff1681526020019081526020015f208054905081106107a4576040517f08c379a000000000000000000000000000000000000000000000000000000000815260040161079b90611bcc565b60405180910390fd5b5f60025f3373ffffffffffffffffffffffffffffffffffffffff1673ffffffffffffffffffffffffffffffffffffffff1681526020019081526020015f2082815481106107f4576107f3611bea565b5b905f5260205f2090600402019050806003015f9054906101000a900460ff16610852576040517f08c379a000000000000000000000000000000000000000000000000000000000815260040161084990611c61565b60405180910390fd5b60065481600101546108649190611df8565b4210156108a6576040517f08c379a000000000000000000000000000000000000000000000000000000000815260040161089d90611e75565b60405180910390fd5b5f815f015490505f6108b83385611475565b90505f8111156109eb577f000000000000000000000000000000000000000000000000000000000000000073ffffffffffffffffffffffffffffffffffffffff1663a9059cbb33836040518363ffffffff1660e01b815260040161091d929190611ce7565b6020604051808303815f875af1158015610939573d5f5f3e3d5ffd5b505050506040513d601f19601f8201168201806040525081019061095d9190611d38565b61099c576040517f08c379a000000000000000000000000000000000000000000000000000000000815260040161099390611dad565b60405180910390fd5b3373ffffffffffffffffffffffffffffffffffffffff167ffc30cddea38e2bf4d6ea7d3f9ed3b6ad7f176419f4963bd81318067a4aee73fe826040516109e291906118e9565b60405180910390a25b7f000000000000000000000000000000000000000000000000000000000000000073ffffffffffffffffffffffffffffffffffffffff1663a9059cbb33846040518363ffffffff1660e01b8152600401610a46929190611ce7565b6020604051808303815f875af1158015610a62573d5f5f3e3d5ffd5b505050506040513d601f19601f82011682018060405250810190610a869190611d38565b610ac5576040517f08c379a0000000000000000000000000000000000000000000000000000000008152600401610abc90611edd565b60405180910390fd5b5f836003015f6101000a81548160ff0219169083151502179055508160035f828254610af19190611efb565b925050819055503373ffffffffffffffffffffffffffffffffffffffff167f7fc4727e062e336010f2c282598ef5f14facb3de68cf8195c2f23e1454b2b74e8386604051610b40929190611f2e565b60405180910390a2505050610b5361169b565b50565b610b5e6116a4565b7f000000000000000000000000000000000000000000000000000000000000000073ffffffffffffffffffffffffffffffffffffffff1663a9059cbb610ba2610e94565b836040518363ffffffff1660e01b8152600401610bc0929190611ce7565b6020604051808303815f875af1158015610bdc573d5f5f3e3d5ffd5b505050506040513d601f19601f82011682018060405250810190610c009190611d38565b610c3f576040517f08c379a0000000000000000000000000000000000000000000000000000000008152600401610c3690611f9f565b60405180910390fd5b50565b610c4a6116a4565b8060068190555050565b60055481565b5f5f5f90505f60025f8573ffffffffffffffffffffffffffffffffffffffff1673ffffffffffffffffffffffffffffffffffffffff1681526020019081526020015f20805480602002602001604051908101604052809291908181526020015f905b82821015610d23578382905f5260205f2090600402016040518060800160405290815f82015481526020016001820154815260200160028201548152602001600382015f9054906101000a900460ff16151515158152505081526020019060010190610cbc565b5050505090505f5f90505b8151811015610d9457818181518110610d4a57610d49611bea565b5b60200260200101516060015115610d8757818181518110610d6e57610d6d611bea565b5b60200260200101515f015183610d849190611df8565b92505b8080600101915050610d2e565b508192505050919050565b610da76116a4565b610db05f61172b565b565b60045481565b60065481565b60035481565b606060025f8373ffffffffffffffffffffffffffffffffffffffff1673ffffffffffffffffffffffffffffffffffffffff1681526020019081526020015f20805480602002602001604051908101604052809291908181526020015f905b82821015610e89578382905f5260205f2090600402016040518060800160405290815f82015481526020016001820154815260200160028201548152602001600382015f9054906101000a900460ff16151515158152505081526020019060010190610e22565b505050509050919050565b5f5f5f9054906101000a900473ffffffffffffffffffffffffffffffffffffffff16905090565b610ec36116a4565b6064811115610f07576040517f08c379a0000000000000000000000000000000000000000000000000000000008152600401610efe90612007565b60405180910390fd5b806004819055507f41d466ebd06fb97e7786086ac8b69b7eb7da798592036251291d34e9791cde0181604051610f3d91906118e9565b60405180910390a150565b610f50611655565b600554811015610f95576040517f08c379a0000000000000000000000000000000000000000000000000000000008152600401610f8c9061206f565b60405180910390fd5b807f000000000000000000000000000000000000000000000000000000000000000073ffffffffffffffffffffffffffffffffffffffff166370a08231336040518263ffffffff1660e01b8152600401610fef9190611a55565b602060405180830381865afa15801561100a573d5f5f3e3d5ffd5b505050506040513d601f19601f8201168201806040525081019061102e91906120a1565b101561106f576040517f08c379a000000000000000000000000000000000000000000000000000000000815260040161106690612116565b60405180910390fd5b7f000000000000000000000000000000000000000000000000000000000000000073ffffffffffffffffffffffffffffffffffffffff166323b872dd3330846040518463ffffffff1660e01b81526004016110cc93929190612134565b6020604051808303815f875af11580156110e8573d5f5f3e3d5ffd5b505050506040513d601f19601f8201168201806040525081019061110c9190611d38565b61114b576040517f08c379a0000000000000000000000000000000000000000000000000000000008152600401611142906121b3565b60405180910390fd5b60025f3373ffffffffffffffffffffffffffffffffffffffff1673ffffffffffffffffffffffffffffffffffffffff1681526020019081526020015f20604051806080016040528083815260200142815260200142815260200160011515815250908060018154018082558091505060019003905f5260205f2090600402015f909190919091505f820151815f015560208201518160010155604082015181600201556060820151816003015f6101000a81548160ff02191690831515021790555050508060035f8282546112209190611df8565b925050819055503373ffffffffffffffffffffffffffffffffffffffff167f1449c6dd7851abc30abf37f57715f492010519147cc2652fbc38202c18a6ee9082600160025f3373ffffffffffffffffffffffffffffffffffffffff1673ffffffffffffffffffffffffffffffffffffffff1681526020019081526020015f20805490506112ad9190611efb565b6040516112bb929190611f2e565b60405180910390a26112cb61169b565b50565b5f5f5f90505f60025f8573ffffffffffffffffffffffffffffffffffffffff1673ffffffffffffffffffffffffffffffffffffffff1681526020019081526020015f20805480602002602001604051908101604052809291908181526020015f905b82821015611397578382905f5260205f2090600402016040518060800160405290815f82015481526020016001820154815260200160028201548152602001600382015f9054906101000a900460ff16151515158152505081526020019060010190611330565b5050505090505f5f90505b81518110156113f4578181815181106113be576113bd611bea565b5b602002602001015160600151156113e7576113d98582611475565b836113e49190611df8565b92505b80806001019150506113a2565b508192505050919050565b7f000000000000000000000000000000000000000000000000000000000000000081565b6002602052815f5260405f20818154811061143c575f80fd5b905f5260205f2090600402015f9150915050805f015490806001015490806002015490806003015f9054906101000a900460ff16905084565b5f60025f8473ffffffffffffffffffffffffffffffffffffffff1673ffffffffffffffffffffffffffffffffffffffff1681526020019081526020015f208054905082106114c5575f90506115cb565b5f60025f8573ffffffffffffffffffffffffffffffffffffffff1673ffffffffffffffffffffffffffffffffffffffff1681526020019081526020015f20838154811061151557611514611bea565b5b905f5260205f2090600402016040518060800160405290815f82015481526020016001820154815260200160028201548152602001600382015f9054906101000a900460ff16151515158152505090508060600151611577575f9150506115cb565b5f8160400151426115889190611efb565b90505f6301e13380905080606461159f91906121d1565b82600454855f01516115b191906121d1565b6115bb91906121d1565b6115c5919061223f565b93505050505b92915050565b6115d96116a4565b5f73ffffffffffffffffffffffffffffffffffffffff168173ffffffffffffffffffffffffffffffffffffffff1603611649575f6040517f1e4fbdf70000000000000000000000000000000000000000000000000000000081526004016116409190611a55565b60405180910390fd5b6116528161172b565b50565b600260015403611691576040517f3ee5aeb500000000000000000000000000000000000000000000000000000000815260040160405180910390fd5b6002600181905550565b60018081905550565b6116ac6117ec565b73ffffffffffffffffffffffffffffffffffffffff166116ca610e94565b73ffffffffffffffffffffffffffffffffffffffff1614611729576116ed6117ec565b6040517f118cdaa70000000000000000000000000000000000000000000000000000000081526004016117209190611a55565b60405180910390fd5b565b5f5f5f9054906101000a900473ffffffffffffffffffffffffffffffffffffffff169050815f5f6101000a81548173ffffffffffffffffffffffffffffffffffffffff021916908373ffffffffffffffffffffffffffffffffffffffff1602179055508173ffffffffffffffffffffffffffffffffffffffff168173ffffffffffffffffffffffffffffffffffffffff167f8be0079c531659141344cd1fd0a4f28419497f9722a3daafe3b4186f6b6457e060405160405180910390a35050565b5f33905090565b5f5ffd5b5f819050919050565b611809816117f7565b8114611813575f5ffd5b50565b5f8135905061182481611800565b92915050565b5f6020828403121561183f5761183e6117f3565b5b5f61184c84828501611816565b91505092915050565b5f73ffffffffffffffffffffffffffffffffffffffff82169050919050565b5f61187e82611855565b9050919050565b61188e81611874565b8114611898575f5ffd5b50565b5f813590506118a981611885565b92915050565b5f602082840312156118c4576118c36117f3565b5b5f6118d18482850161189b565b91505092915050565b6118e3816117f7565b82525050565b5f6020820190506118fc5f8301846118da565b92915050565b5f81519050919050565b5f82825260208201905092915050565b5f819050602082019050919050565b611934816117f7565b82525050565b5f8115159050919050565b61194e8161193a565b82525050565b608082015f8201516119685f85018261192b565b50602082015161197b602085018261192b565b50604082015161198e604085018261192b565b5060608201516119a16060850182611945565b50505050565b5f6119b28383611954565b60808301905092915050565b5f602082019050919050565b5f6119d482611902565b6119de818561190c565b93506119e98361191c565b805f5b83811015611a19578151611a0088826119a7565b9750611a0b836119be565b9250506001810190506119ec565b5085935050505092915050565b5f6020820190508181035f830152611a3e81846119ca565b905092915050565b611a4f81611874565b82525050565b5f602082019050611a685f830184611a46565b92915050565b5f819050919050565b5f611a91611a8c611a8784611855565b611a6e565b611855565b9050919050565b5f611aa282611a77565b9050919050565b5f611ab382611a98565b9050919050565b611ac381611aa9565b82525050565b5f602082019050611adc5f830184611aba565b92915050565b5f5f60408385031215611af857611af76117f3565b5b5f611b058582860161189b565b9250506020611b1685828601611816565b9150509250929050565b611b298161193a565b82525050565b5f608082019050611b425f8301876118da565b611b4f60208301866118da565b611b5c60408301856118da565b611b696060830184611b20565b95945050505050565b5f82825260208201905092915050565b7f496e76616c6964207374616b6520696e646578000000000000000000000000005f82015250565b5f611bb6601383611b72565b9150611bc182611b82565b602082019050919050565b5f6020820190508181035f830152611be381611baa565b9050919050565b7f4e487b71000000000000000000000000000000000000000000000000000000005f52603260045260245ffd5b7f5374616b65206e6f7420616374697665000000000000000000000000000000005f82015250565b5f611c4b601083611b72565b9150611c5682611c17565b602082019050919050565b5f6020820190508181035f830152611c7881611c3f565b9050919050565b7f4e6f207265776172647320617661696c61626c650000000000000000000000005f82015250565b5f611cb3601483611b72565b9150611cbe82611c7f565b602082019050919050565b5f6020820190508181035f830152611ce081611ca7565b9050919050565b5f604082019050611cfa5f830185611a46565b611d0760208301846118da565b9392505050565b611d178161193a565b8114611d21575f5ffd5b50565b5f81519050611d3281611d0e565b92915050565b5f60208284031215611d4d57611d4c6117f3565b5b5f611d5a84828501611d24565b91505092915050565b7f526577617264207472616e73666572206661696c6564000000000000000000005f82015250565b5f611d97601683611b72565b9150611da282611d63565b602082019050919050565b5f6020820190508181035f830152611dc481611d8b565b9050919050565b7f4e487b71000000000000000000000000000000000000000000000000000000005f52601160045260245ffd5b5f611e02826117f7565b9150611e0d836117f7565b9250828201905080821115611e2557611e24611dcb565b5b92915050565b7f5374616b696e67206475726174696f6e206e6f74206d657400000000000000005f82015250565b5f611e5f601883611b72565b9150611e6a82611e2b565b602082019050919050565b5f6020820190508181035f830152611e8c81611e53565b9050919050565b7f5072696e636970616c207472616e73666572206661696c6564000000000000005f82015250565b5f611ec7601983611b72565b9150611ed282611e93565b602082019050919050565b5f6020820190508181035f830152611ef481611ebb565b9050919050565b5f611f05826117f7565b9150611f10836117f7565b9250828203905081811115611f2857611f27611dcb565b5b92915050565b5f604082019050611f415f8301856118da565b611f4e60208301846118da565b9392505050565b7f456d657267656e6379207769746864726177206661696c6564000000000000005f82015250565b5f611f89601983611b72565b9150611f9482611f55565b602082019050919050565b5f6020820190508181035f830152611fb681611f7d565b9050919050565b7f526577617264207261746520746f6f20686967680000000000000000000000005f82015250565b5f611ff1601483611b72565b9150611ffc82611fbd565b602082019050919050565b5f6020820190508181035f83015261201e81611fe5565b9050919050565b7f416d6f756e742062656c6f77206d696e696d756d207374616b650000000000005f82015250565b5f612059601a83611b72565b915061206482612025565b602082019050919050565b5f6020820190508181035f8301526120868161204d565b9050919050565b5f8151905061209b81611800565b92915050565b5f602082840312156120b6576120b56117f3565b5b5f6120c38482850161208d565b91505092915050565b7f496e73756666696369656e742062616c616e63650000000000000000000000005f82015250565b5f612100601483611b72565b915061210b826120cc565b602082019050919050565b5f6020820190508181035f83015261212d816120f4565b9050919050565b5f6060820190506121475f830186611a46565b6121546020830185611a46565b61216160408301846118da565b949350505050565b7f5472616e73666572206661696c656400000000000000000000000000000000005f82015250565b5f61219d600f83611b72565b91506121a882612169565b602082019050919050565b5f6020820190508181035f8301526121ca81612191565b9050919050565b5f6121db826117f7565b91506121e6836117f7565b92508282026121f4816117f7565b9150828204841483151761220b5761220a611dcb565b5b5092915050565b7f4e487b71000000000000000000000000000000000000000000000000000000005f52601260045260245ffd5b5f612249826117f7565b9150612254836117f7565b92508261226457612263612212565b5b82820490509291505056fea2646970667358221220db8c41de88eea23851693d728f6febd5aa584273e12d9558eb5bb2553f06887764736f6c634300081e0033","linkReferences":{}},"methodIdentifiers":{"bloomToken()":"b2491e67","calculateRewards(address,uint256)":"beb8314c","claimRewards(uint256)":"0962ef79","emergencyWithdraw(uint256)":"5312ea8e","getTotalPendingRewards(address)":"a8c478ba","getUserStakeCount(address)":"1b545a17","getUserStakes(address)":"842e2981","getUserTotalStaked(address)":"6e2f1696","minimumStakeAmount()":"6b036f45","owner()":"8da5cb5b","renounceOwnership()":"715018a6","rewardRate()":"7b0a47ee","setMinimumStakeAmount(uint256)":"0d29fcd4","setRewardRate(uint256)":"9e447fc6","setStakingDuration(uint256)":"6a8ca691","stake(uint256)":"a694fc3a","stakingDuration()":"8005a7de","totalStaked()":"817b1cd2","transferOwnership(address)":"f2fde38b","unstake(uint256)":"2e17de78","userStakes(address,uint256)":"b5d5b5fa"},"id":2}