{"abi":[{"type":"constructor","inputs":[{"name":"token_","type":"address","internalType":"address"},{"name":"signer_","type":"address","internalType":"address"}],"stateMutability":"nonpayable"},{"type":"function","name":"claim","inputs":[{"name":"v","type":"tuple","internalType":"struct Distributor.Voucher","components":[{"name":"to","type":"address","internalType":"address"},{"name":"amount","type":"uint256","internalType":"uint256"},{"name":"nonce","type":"uint256","internalType":"uint256"},{"name":"deadline","type":"uint256","internalType":"uint256"}]},{"name":"sig","type":"bytes","internalType":"bytes"}],"outputs":[],"stateMutability":"nonpayable"},{"type":"function","name":"eip712Domain","inputs":[],"outputs":[{"name":"fields","type":"bytes1","internalType":"bytes1"},{"name":"name","type":"string","internalType":"string"},{"name":"version","type":"string","internalType":"string"},{"name":"chainId","type":"uint256","internalType":"uint256"},{"name":"verifyingContract","type":"address","internalType":"address"},{"name":"salt","type":"bytes32","internalType":"bytes32"},{"name":"extensions","type":"uint256[]","internalType":"uint256[]"}],"stateMutability":"view"},{"type":"function","name":"redeemed","inputs":[{"name":"","type":"bytes32","internalType":"bytes32"}],"outputs":[{"name":"","type":"bool","internalType":"bool"}],"stateMutability":"view"},{"type":"function","name":"setSigner","inputs":[{"name":"newSigner","type":"address","internalType":"address"}],"outputs":[],"stateMutability":"nonpayable"},{"type":"function","name":"signer","inputs":[],"outputs":[{"name":"","type":"address","internalType":"address"}],"stateMutability":"view"},{"type":"function","name":"token","inputs":[],"outputs":[{"name":"","type":"address","internalType":"contract IERC20"}],"stateMutability":"view"},{"type":"event","name":"Claimed","inputs":[{"name":"to","type":"address","indexed":true,"internalType":"address"},{"name":"amount","type":"uint256","indexed":false,"internalType":"uint256"}],"anonymous":false},{"type":"event","name":"EIP712DomainChanged","inputs":[],"anonymous":false},{"type":"error","name":"ECDSAInvalidSignature","inputs":[]},{"type":"error","name":"ECDSAInvalidSignatureLength","inputs":[{"name":"length","type":"uint256","internalType":"uint256"}]},{"type":"error","name":"ECDSAInvalidSignatureS","inputs":[{"name":"s","type":"bytes32","internalType":"bytes32"}]},{"type":"error","name":"InvalidShortString","inputs":[]},{"type":"error","name":"StringTooLong","inputs":[{"name":"str","type":"string","internalType":"string"}]}],"bytecode":{"object":"0x610180604052348015610010575f5ffd5b50604051611f7f380380611f7f83398181016040528101906100329190610336565b6040518060400160405280600b81526020017f4469737472696275746f720000000000000000000000000000000000000000008152506040518060400160405280600181526020017f31000000000000000000000000000000000000000000000000000000000000008152506100b15f836101c360201b90919060201c565b61012081815250506100cd6001826101c360201b90919060201c565b6101408181525050818051906020012060e08181525050808051906020012061010081815250504660a0818152505061010a61021060201b60201c565b608081815250503073ffffffffffffffffffffffffffffffffffffffff1660c08173ffffffffffffffffffffffffffffffffffffffff168152505050508173ffffffffffffffffffffffffffffffffffffffff166101608173ffffffffffffffffffffffffffffffffffffffff16815250508060025f6101000a81548173ffffffffffffffffffffffffffffffffffffffff021916908373ffffffffffffffffffffffffffffffffffffffff1602179055505050610820565b5f6020835110156101e4576101dd8361026a60201b60201c565b905061020a565b826101f4836102cf60201b60201c565b5f01908161020291906105b1565b5060ff5f1b90505b92915050565b5f7f8b73c3c69bb8fe3d512ecc4cf759cc79239f7b179b0ffacaa9a75d522b39400f60e05161010051463060405160200161024f9594939291906106b6565b60405160208183030381529060405280519060200120905090565b5f5f829050601f815111156102b657826040517f305a27a90000000000000000000000000000000000000000000000000000000081526004016102ad919061076d565b60405180910390fd5b8051816102c2906107ba565b5f1c175f1b915050919050565b5f819050919050565b5f5ffd5b5f73ffffffffffffffffffffffffffffffffffffffff82169050919050565b5f610305826102dc565b9050919050565b610315816102fb565b811461031f575f5ffd5b50565b5f815190506103308161030c565b92915050565b5f5f6040838503121561034c5761034b6102d8565b5b5f61035985828601610322565b925050602061036a85828601610322565b9150509250929050565b5f81519050919050565b7f4e487b71000000000000000000000000000000000000000000000000000000005f52604160045260245ffd5b7f4e487b71000000000000000000000000000000000000000000000000000000005f52602260045260245ffd5b5f60028204905060018216806103ef57607f821691505b602082108103610402576104016103ab565b5b50919050565b5f819050815f5260205f209050919050565b5f6020601f8301049050919050565b5f82821b905092915050565b5f600883026104647fffffffffffffffffffffffffffffffffffffffffffffffffffffffffffffffff82610429565b61046e8683610429565b95508019841693508086168417925050509392505050565b5f819050919050565b5f819050919050565b5f6104b26104ad6104a884610486565b61048f565b610486565b9050919050565b5f819050919050565b6104cb83610498565b6104df6104d7826104b9565b848454610435565b825550505050565b5f5f905090565b6104f66104e7565b6105018184846104c2565b505050565b5b81811015610524576105195f826104ee565b600181019050610507565b5050565b601f8211156105695761053a81610408565b6105438461041a565b81016020851015610552578190505b61056661055e8561041a565b830182610506565b50505b505050565b5f82821c905092915050565b5f6105895f198460080261056e565b1980831691505092915050565b5f6105a1838361057a565b9150826002028217905092915050565b6105ba82610374565b67ffffffffffffffff8111156105d3576105d261037e565b5b6105dd82546103d8565b6105e8828285610528565b5f60209050601f831160018114610619575f8415610607578287015190505b6106118582610596565b865550610678565b601f19841661062786610408565b5f5b8281101561064e57848901518255600182019150602085019450602081019050610629565b8683101561066b5784890151610667601f89168261057a565b8355505b6001600288020188555050505b505050505050565b5f819050919050565b61069281610680565b82525050565b6106a181610486565b82525050565b6106b0816102fb565b82525050565b5f60a0820190506106c95f830188610689565b6106d66020830187610689565b6106e36040830186610689565b6106f06060830185610698565b6106fd60808301846106a7565b9695505050505050565b5f82825260208201905092915050565b8281835e5f83830152505050565b5f601f19601f8301169050919050565b5f61073f82610374565b6107498185610707565b9350610759818560208601610717565b61076281610725565b840191505092915050565b5f6020820190508181035f8301526107858184610735565b905092915050565b5f81519050919050565b5f819050602082019050919050565b5f6107b18251610680565b80915050919050565b5f6107c48261078d565b826107ce84610797565b90506107d9816107a6565b92506020821015610819576108147fffffffffffffffffffffffffffffffffffffffffffffffffffffffffffffffff83602003600802610429565b831692505b5050919050565b60805160a05160c05160e051610100516101205161014051610160516116fd6108825f395f81816103cd01526106de01525f61078601525f61074b01525f610b5701525f610b3601525f6107bb01525f61081101525f61083a01526116fd5ff3fe608060405234801561000f575f5ffd5b5060043610610060575f3560e01c80630ddb63b414610064578063238ac933146100805780633d8b9e071461009e5780636c19e783146100ce57806384b0196e146100ea578063fc0c546a1461010e575b5f5ffd5b61007e60048036038101906100799190610dd9565b61012c565b005b610088610523565b6040516100959190610e75565b60405180910390f35b6100b860048036038101906100b39190610ec1565b610548565b6040516100c59190610f06565b60405180910390f35b6100e860048036038101906100e39190610f49565b610565565b005b6100f2610637565b60405161010597969594939291906110fc565b60405180910390f35b6101166106dc565b60405161012391906111d9565b60405180910390f35b8260600135421115610173576040517f08c379a000000000000000000000000000000000000000000000000000000000815260040161016a9061123c565b60405180910390fd5b3373ffffffffffffffffffffffffffffffffffffffff16835f01602081019061019c9190610f49565b73ffffffffffffffffffffffffffffffffffffffff16146101f2576040517f08c379a00000000000000000000000000000000000000000000000000000000081526004016101e9906112a4565b60405180910390fd5b5f6102677f308fdb8146d4bd35d2290367e996e546de5ea28c19c3431b6a9ea1ae5bf1bd5b855f0160208101906102299190610f49565b86602001358760400135886060013560405160200161024c9594939291906112c2565b60405160208183030381529060405280519060200120610700565b905060035f8281526020019081526020015f205f9054906101000a900460ff16156102c7576040517f08c379a00000000000000000000000000000000000000000000000000000000081526004016102be9061135d565b60405180910390fd5b60025f9054906101000a900473ffffffffffffffffffffffffffffffffffffffff1673ffffffffffffffffffffffffffffffffffffffff1661034c8285858080601f0160208091040260200160405190810160405280939291908181526020018383808284375f81840152601f19601f82011690508083019250505050505050610719565b73ffffffffffffffffffffffffffffffffffffffff16146103a2576040517f08c379a0000000000000000000000000000000000000000000000000000000008152600401610399906113c5565b60405180910390fd5b600160035f8381526020019081526020015f205f6101000a81548160ff0219169083151502179055507f000000000000000000000000000000000000000000000000000000000000000073ffffffffffffffffffffffffffffffffffffffff1663a9059cbb855f0160208101906104199190610f49565b86602001356040518363ffffffff1660e01b815260040161043b9291906113e3565b6020604051808303815f875af1158015610457573d5f5f3e3d5ffd5b505050506040513d601f19601f8201168201806040525081019061047b9190611434565b6104ba576040517f08c379a00000000000000000000000000000000000000000000000000000000081526004016104b1906114a9565b60405180910390fd5b835f0160208101906104cc9190610f49565b73ffffffffffffffffffffffffffffffffffffffff167fd8138f8a3f377c5259ca548e70e4c2de94f129f5a11036a15b69513cba2b426a856020013560405161051591906114c7565b60405180910390a250505050565b60025f9054906101000a900473ffffffffffffffffffffffffffffffffffffffff1681565b6003602052805f5260405f205f915054906101000a900460ff1681565b60025f9054906101000a900473ffffffffffffffffffffffffffffffffffffffff1673ffffffffffffffffffffffffffffffffffffffff163373ffffffffffffffffffffffffffffffffffffffff16146105f4576040517f08c379a00000000000000000000000000000000000000000000000000000000081526004016105eb9061152a565b60405180910390fd5b8060025f6101000a81548173ffffffffffffffffffffffffffffffffffffffff021916908373ffffffffffffffffffffffffffffffffffffffff16021790555050565b5f6060805f5f5f6060610648610743565b61065061077d565b46305f5f1b5f67ffffffffffffffff81111561066f5761066e611548565b5b60405190808252806020026020018201604052801561069d5781602001602082028036833780820191505090505b507f0f00000000000000000000000000000000000000000000000000000000000000959493929190965096509650965096509650965090919293949596565b7f000000000000000000000000000000000000000000000000000000000000000081565b5f61071261070c6107b8565b8361086e565b9050919050565b5f5f5f5f61072786866108ae565b9250925092506107378282610903565b82935050505092915050565b60606107785f7f0000000000000000000000000000000000000000000000000000000000000000610a6590919063ffffffff16565b905090565b60606107b360017f0000000000000000000000000000000000000000000000000000000000000000610a6590919063ffffffff16565b905090565b5f7f000000000000000000000000000000000000000000000000000000000000000073ffffffffffffffffffffffffffffffffffffffff163073ffffffffffffffffffffffffffffffffffffffff1614801561083357507f000000000000000000000000000000000000000000000000000000000000000046145b15610860577f0000000000000000000000000000000000000000000000000000000000000000905061086b565b610868610b12565b90505b90565b5f6040517f190100000000000000000000000000000000000000000000000000000000000081528360028201528260228201526042812091505092915050565b5f5f5f60418451036108ee575f5f5f602087015192506040870151915060608701515f1a90506108e088828585610ba7565b9550955095505050506108fc565b5f600285515f1b9250925092505b9250925092565b5f600381111561091657610915611575565b5b82600381111561092957610928611575565b5b0315610a61576001600381111561094357610942611575565b5b82600381111561095657610955611575565b5b0361098d576040517ff645eedf00000000000000000000000000000000000000000000000000000000815260040160405180910390fd5b600260038111156109a1576109a0611575565b5b8260038111156109b4576109b3611575565b5b036109f857805f1c6040517ffce698f70000000000000000000000000000000000000000000000000000000081526004016109ef91906114c7565b60405180910390fd5b600380811115610a0b57610a0a611575565b5b826003811115610a1e57610a1d611575565b5b03610a6057806040517fd78bce0c000000000000000000000000000000000000000000000000000000008152600401610a5791906115a2565b60405180910390fd5b5b5050565b606060ff5f1b8314610a8157610a7a83610c8e565b9050610b0c565b818054610a8d906115e8565b80601f0160208091040260200160405190810160405280929190818152602001828054610ab9906115e8565b8015610b045780601f10610adb57610100808354040283529160200191610b04565b820191905f5260205f20905b815481529060010190602001808311610ae757829003601f168201915b505050505090505b92915050565b5f7f8b73c3c69bb8fe3d512ecc4cf759cc79239f7b179b0ffacaa9a75d522b39400f7f00000000000000000000000000000000000000000000000000000000000000007f00000000000000000000000000000000000000000000000000000000000000004630604051602001610b8c959493929190611618565b60405160208183030381529060405280519060200120905090565b5f5f5f7f7fffffffffffffffffffffffffffffff5d576e7357a4501ddfe92f46681b20a0845f1c1115610be3575f600385925092509250610c84565b5f6001888888886040515f8152602001604052604051610c069493929190611684565b6020604051602081039080840390855afa158015610c26573d5f5f3e3d5ffd5b5050506020604051035190505f73ffffffffffffffffffffffffffffffffffffffff168173ffffffffffffffffffffffffffffffffffffffff1603610c77575f60015f5f1b93509350935050610c84565b805f5f5f1b935093509350505b9450945094915050565b60605f610c9a83610d00565b90505f602067ffffffffffffffff811115610cb857610cb7611548565b5b6040519080825280601f01601f191660200182016040528015610cea5781602001600182028036833780820191505090505b5090508181528360208201528092505050919050565b5f5f60ff835f1c169050601f811115610d45576040517fb3512b0c00000000000000000000000000000000000000000000000000000000815260040160405180910390fd5b80915050919050565b5f5ffd5b5f5ffd5b5f5ffd5b5f60808284031215610d6f57610d6e610d56565b5b81905092915050565b5f5ffd5b5f5ffd5b5f5ffd5b5f5f83601f840112610d9957610d98610d78565b5b8235905067ffffffffffffffff811115610db657610db5610d7c565b5b602083019150836001820283011115610dd257610dd1610d80565b5b9250929050565b5f5f5f60a08486031215610df057610def610d4e565b5b5f610dfd86828701610d5a565b935050608084013567ffffffffffffffff811115610e1e57610e1d610d52565b5b610e2a86828701610d84565b92509250509250925092565b5f73ffffffffffffffffffffffffffffffffffffffff82169050919050565b5f610e5f82610e36565b9050919050565b610e6f81610e55565b82525050565b5f602082019050610e885f830184610e66565b92915050565b5f819050919050565b610ea081610e8e565b8114610eaa575f5ffd5b50565b5f81359050610ebb81610e97565b92915050565b5f60208284031215610ed657610ed5610d4e565b5b5f610ee384828501610ead565b91505092915050565b5f8115159050919050565b610f0081610eec565b82525050565b5f602082019050610f195f830184610ef7565b92915050565b610f2881610e55565b8114610f32575f5ffd5b50565b5f81359050610f4381610f1f565b92915050565b5f60208284031215610f5e57610f5d610d4e565b5b5f610f6b84828501610f35565b91505092915050565b5f7fff0000000000000000000000000000000000000000000000000000000000000082169050919050565b610fa881610f74565b82525050565b5f81519050919050565b5f82825260208201905092915050565b8281835e5f83830152505050565b5f601f19601f8301169050919050565b5f610ff082610fae565b610ffa8185610fb8565b935061100a818560208601610fc8565b61101381610fd6565b840191505092915050565b5f819050919050565b6110308161101e565b82525050565b61103f81610e8e565b82525050565b5f81519050919050565b5f82825260208201905092915050565b5f819050602082019050919050565b6110778161101e565b82525050565b5f611088838361106e565b60208301905092915050565b5f602082019050919050565b5f6110aa82611045565b6110b4818561104f565b93506110bf8361105f565b805f5b838110156110ef5781516110d6888261107d565b97506110e183611094565b9250506001810190506110c2565b5085935050505092915050565b5f60e08201905061110f5f83018a610f9f565b81810360208301526111218189610fe6565b905081810360408301526111358188610fe6565b90506111446060830187611027565b6111516080830186610e66565b61115e60a0830185611036565b81810360c083015261117081846110a0565b905098975050505050505050565b5f819050919050565b5f6111a161119c61119784610e36565b61117e565b610e36565b9050919050565b5f6111b282611187565b9050919050565b5f6111c3826111a8565b9050919050565b6111d3816111b9565b82525050565b5f6020820190506111ec5f8301846111ca565b92915050565b7f65787069726564000000000000000000000000000000000000000000000000005f82015250565b5f611226600783610fb8565b9150611231826111f2565b602082019050919050565b5f6020820190508181035f8301526112538161121a565b9050919050565b7f6e6f7420726563697069656e74000000000000000000000000000000000000005f82015250565b5f61128e600d83610fb8565b91506112998261125a565b602082019050919050565b5f6020820190508181035f8301526112bb81611282565b9050919050565b5f60a0820190506112d55f830188611036565b6112e26020830187610e66565b6112ef6040830186611027565b6112fc6060830185611027565b6113096080830184611027565b9695505050505050565b7f616c7265616479207573656400000000000000000000000000000000000000005f82015250565b5f611347600c83610fb8565b915061135282611313565b602082019050919050565b5f6020820190508181035f8301526113748161133b565b9050919050565b7f62616420736967000000000000000000000000000000000000000000000000005f82015250565b5f6113af600783610fb8565b91506113ba8261137b565b602082019050919050565b5f6020820190508181035f8301526113dc816113a3565b9050919050565b5f6040820190506113f65f830185610e66565b6114036020830184611027565b9392505050565b61141381610eec565b811461141d575f5ffd5b50565b5f8151905061142e8161140a565b92915050565b5f6020828403121561144957611448610d4e565b5b5f61145684828501611420565b91505092915050565b7f7472616e73666572206661696c656400000000000000000000000000000000005f82015250565b5f611493600f83610fb8565b915061149e8261145f565b602082019050919050565b5f6020820190508181035f8301526114c081611487565b9050919050565b5f6020820190506114da5f830184611027565b92915050565b7f6f6e6c79207369676e65720000000000000000000000000000000000000000005f82015250565b5f611514600b83610fb8565b915061151f826114e0565b602082019050919050565b5f6020820190508181035f83015261154181611508565b9050919050565b7f4e487b71000000000000000000000000000000000000000000000000000000005f52604160045260245ffd5b7f4e487b71000000000000000000000000000000000000000000000000000000005f52602160045260245ffd5b5f6020820190506115b55f830184611036565b92915050565b7f4e487b71000000000000000000000000000000000000000000000000000000005f52602260045260245ffd5b5f60028204905060018216806115ff57607f821691505b602082108103611612576116116115bb565b5b50919050565b5f60a08201905061162b5f830188611036565b6116386020830187611036565b6116456040830186611036565b6116526060830185611027565b61165f6080830184610e66565b9695505050505050565b5f60ff82169050919050565b61167e81611669565b82525050565b5f6080820190506116975f830187611036565b6116a46020830186611675565b6116b16040830185611036565b6116be6060830184611036565b9594505050505056fea26469706673582212204b19a5ed24abea6b9023203e476a2b64acc84617886564d824d7dc36abb3226664736f6c634300081e0033","linkReferences":{}},"methodIdentifiers":{"claim((address,uint256,uint256,uint256),bytes)":"0ddb63b4","eip712Domain()":"84b0196e","redeemed(bytes32)":"3d8b9e07","setSigner(address)":"6c19e783","signer()":"238ac933","token()":"fc0c546a"},"id":3}